:100000000C945C000C9479000C9479000C947900A9
:100010000C9479000C9479000C9479000C9479007C
:100020000C9479000C9479000C9479000C9479006C
:100030000C9479000C9479000C9479000C9479005C
:100040000C940F010C9479000C9479000C947900B5
:100050000C9479000C9479000C9479000C9479003C
:100060000C9479000C947900000000080002010053
:100070000003040700000000000000000102040863
:100080001020408001020408102001020408102002
:10009000040404040404040402020202020203032E
:1000A0000303030300000000250028002B000000CC
:1000B0000000240027002A0011241FBECFEFD8E043
:1000C000DEBFCDBF11E0A0E0B1E0ECE2F5E002C0A0
:1000D00005900D92A032B107D9F721E0A0E2B1E07E
:1000E00001C01D92A932B207E1F70E9484020C946C
:1000F00094020C94000080EF8AB961E080911601AF
:100100000E94140261E0809114010C941402EF9299
:10011000FF920F931F93CF93DF9308E111E0C0E0AC
:10012000D0E0E82EF12CF80180810E5F1F4FB7015F
:100130000C2E02C0759567950A94E2F761707727D7
:100140000E944D022196C430D10569F7DF91CF910D
:100150001F910F91FF90EF900895CF93C82F60E00B
:10016000809116010E944D0261E0809114010E946D
:100170004D028C2FCF910C948700CF93C82F61E054
:10018000809116010E944D0260E0809114010E944E
:100190004D028C2FCF910C948700CF92DF92EF927B
:1001A000FF920F931F93CF93DF9300E011E0C0E025
:1001B000D1E00E9459016B017C01F80180810E940D
:1001C000AD0064EF71E080E090E00E9488018881DA
:1001D0000E94BD0064EF71E080E090E00E94880121
:1001E0000E9459016C197D098E099F09683572407A
:1001F0008105910510F3229621E0C431D207C9F69A
:100200000E5F1F4F81E00431180789F6DF91CF910F
:100210001F910F91FF90EF90DF90CF9008951F9264
:100220000F920FB60F9211242F933F938F939F93AA
:10023000AF93BF938091210190912201A09123015E
:10024000B09124013091200123E0230F2D3720F4B9
:100250000196A11DB11D05C026E8230F0296A11D20
:10026000B11D209320018093210190932201A0933E
:100270002301B09324018091250190912601A09142
:100280002701B09128010196A11DB11D8093250180
:1002900090932601A0932701B0932801BF91AF91BD
:1002A0009F918F913F912F910F900FBE0F901F90B4
:1002B00018952FB7F89460912101709122018091D7
:1002C0002301909124012FBF08953FB7F8948091A6
:1002D000250190912601A0912701B091280126B512
:1002E000A89B05C02F3F19F00196A11DB11D3FBF6E
:1002F0006627782F892F9A2F620F711D811D911DFE
:1003000042E0660F771F881F991F4A95D1F708951D
:10031000CF92DF92EF92FF92CF93DF936B017C013C
:100320000E946501EB01C114D104E104F10489F0DC
:100330000E9493020E9465016C1B7D0B683E734016
:1003400090F381E0C81AD108E108F108C851DC4FE8
:10035000EACFDF91CF91FF90EF90DF90CF9008959B
:10036000789484B5826084BD84B5816084BD85B590
:10037000826085BD85B5816085BDEEE6F0E0808157
:1003800081608083E1E8F0E0108280818260808378
:10039000808181608083E0E8F0E0808181608083FB
:1003A000E1EBF0E0808184608083E0EBF0E080812D
:1003B00081608083EAE7F0E08081846080838081CF
:1003C0008260808380818160808380818068808377
:1003D0001092C1000895833081F028F4813099F0A3
:1003E0008230A1F008958730A9F08830B9F08430C8
:1003F000D1F4809180008F7D03C0809180008F7741
:1004000080938000089584B58F7702C084B58F7D76
:1004100084BD08958091B0008F7703C08091B000B3
:100420008F7D8093B0000895CF93DF9390E0FC011F
:10043000E458FF4F2491FC01E057FF4F849188233B
:1004400049F190E0880F991FFC01E255FF4FA591FB
:10045000B4918C559F4FFC01C591D4919FB7611108
:1004600008C0F8948C91209582238C9388818223F4
:100470000AC0623051F4F8948C91322F3095832366
:100480008C938881822B888304C0F8948C91822B72
:100490008C939FBFDF91CF9108950F931F93CF93BC
:1004A000DF931F92CDB7DEB7282F30E0F901E8596E
:1004B000FF4F8491F901E458FF4F1491F901E0577F
:1004C000FF4F04910023C9F0882321F069830E9423
:1004D000EB016981E02FF0E0EE0FFF1FEC55FF4FBD
:1004E000A591B4919FB7F8948C91611103C01095B8
:1004F000812301C0812B8C939FBF0F90DF91CF91FF
:100500001F910F91089508950E94B0010E948302E7
:100510000E947B00C0E0D0E00E94CD002097E1F374
:0C0520000E940000F9CF0895F894FFCF6E
:10052C0000000100020003000400050006000700A3
:10053C00080009000D000C0007000600050004006F
:00000001FF
