:100000000C945D000C947A000C947A000C947A00A5
:100010000C947A000C947A000C947A000C947A0078
:100020000C947A000C947A000C947A000C947A0068
:100030000C947A000C947A000C947A000C947A0058
:100040000C945D020C947A000C947A000C947A0063
:100050000C947A000C947A000C947A000C947A0038
:100060000C947A000C947A00000000080002010051
:100070000003040700000000000000000102040863
:100080001020408001020408102001020408102002
:10009000040404040404040402020202020203032E
:1000A0000303030300000000250028002B000000CC
:1000B0000000240027002A00EB0011241FBECFEF10
:1000C000D8E0DEBFCDBF21E0A0E0B1E001C01D92CD
:1000D000A331B207E1F710E0CAEBD0E004C02297E9
:1000E000FE010E94D803C83BD107C9F70E94C6038E
:1000F0000C94DC030C940000089580E091E00E94D1
:100100004A0168EC70E080E090E00E94CA0280E062
:1001100091E00E94630168EC70E080E090E00E9452
:10012000CA0280E091E00E947C0168EC70E080E00F
:1001300090E00E94CA0280E091E00E94950168EC84
:1001400070E080E090E00E94CA0280E091E00E94AE
:10015000AE0168EC70E080E090E00E94CA0280E0AE
:1001600091E00E94C70168EC70E080E090E00E949E
:10017000CA0280E091E00E94E00168EC70E080E05B
:1001800090E00E94CA0280E091E00E94F90168ECD0
:1001900070E080E090E00E94CA0280E091E00E945E
:1001A000120268EC70E080E090E00E94CA0280E0F9
:1001B00091E00E942B0268EC70E080E090E00E94E9
:1001C000CA0280E091E00E94440268EC70E080E0A6
:1001D00090E00C94CA02EF92FF920F931F9383E07A
:1001E000E82EF12C04E010E025E030E046E050E09D
:1001F00067E070E080E091E00E9403011F910F91A1
:10020000FF90EF9008958F929F92BF92CF92DF92CE
:10021000EF92FF920F931F93CF93DF9300D01F9223
:10022000CDB7DEB74C01B62EC42ED22E61E08B2D99
:100230003B835A8379830E94560361E08C2D0E9490
:10024000560361E08D2D0E94560361E0802F0E94CD
:10025000560361E08E2D0E945603F401B08279812D
:100260007183C2825A815383D4823B813583068352
:100270001783E086F1860F900F900F90DF91CF915A
:100280001F910F91FF90EF90DF90CF90BF909F90C4
:100290008F900895CF93DF93EC0160E088850E94F2
:1002A0008F0360E08E810E948F0360E08C810E944A
:1002B0008F0360E08A810E948F0360E08881DF9174
:1002C000CF910C948F03CF93DF93EC0161E088858D
:1002D0000E948F0360E08E810E948F0360E08C811A
:1002E0000E948F0360E08A810E948F0360E0888112
:1002F000DF91CF910C948F03CF93DF93EC0161E0FA
:1003000088850E948F0360E08E810E948F0360E0E9
:100310008C810E948F0360E08A810E948F0361E0DC
:100320008881DF91CF910C948F03CF93DF93EC0101
:1003300061E088850E948F0360E08E810E948F03B8
:1003400060E08C810E948F0361E08A810E948F03AC
:1003500060E08881DF91CF910C948F03CF93DF937E
:10036000EC0161E088850E948F0360E08E810E942D
:100370008F0360E08C810E948F0361E08A810E947C
:100380008F0361E08881DF91CF910C948F03CF932D
:10039000DF93EC0161E088850E948F0360E08E812D
:1003A0000E948F0361E08C810E948F0360E08A814C
:1003B0000E948F0360E08881DF91CF910C948F03BE
:1003C000CF93DF93EC0161E088850E948F0360E0AA
:1003D0008E810E948F0361E08C810E948F0360E018
:1003E0008A810E948F0361E08881DF91CF910C9414
:1003F0008F03CF93DF93EC0161E088850E948F0328
:1004000060E08E810E948F0361E08C810E948F03E7
:1004100061E08A810E948F0360E08881DF91CF9143
:100420000C948F03CF93DF93EC0161E088850E94E9
:100430008F0360E08E810E948F0361E08C810E94B7
:100440008F0361E08A810E948F0361E08881DF91E0
:10045000CF910C948F03CF93DF93EC0161E08885FB
:100460000E948F0361E08E810E948F0360E08C8187
:100470000E948F0360E08A810E948F0360E0888180
:10048000DF91CF910C948F03CF93DF93EC0161E068
:1004900088850E948F0361E08E810E948F0360E057
:1004A0008C810E948F0360E08A810E948F0361E04B
:1004B0008881DF91CF910C948F031F920F920FB61A
:1004C0000F9211242F933F938F939F93AF93BF93DA
:1004D00080910B0190910C01A0910D01B0910E0142
:1004E00030910A0123E0230F2D3720F40196A11D3E
:1004F000B11D05C026E8230F0296A11DB11D209352
:100500000A0180930B0190930C01A0930D01B0930D
:100510000E0180910F0190911001A0911101B091F5
:1005200012010196A11DB11D80930F01909310013E
:10053000A0931101B0931201BF91AF919F918F9140
:100540003F912F910F900FBE0F901F9018953FB7BE
:10055000F89480910F0190911001A0911101B09138
:10056000120126B5A89B05C02F3F19F00196A11DC9
:10057000B11D3FBF6627782F892F9A2F620F711DFB
:10058000811D911D42E0660F771F881F991F4A95B4
:10059000D1F70895CF92DF92EF92FF92CF93DF933E
:1005A0006B017C010E94A702EB01C114D104E1049C
:1005B000F10489F00E94D5030E94A7026C1B7D0BF9
:1005C000683E734090F381E0C81AD108E108F10851
:1005D000C851DC4FEACFDF91CF91FF90EF90DF90D1
:1005E000CF900895789484B5826084BD84B581608D
:1005F00084BD85B5826085BD85B5816085BDEEE62B
:10060000F0E0808181608083E1E8F0E01082808109
:1006100082608083808181608083E0E8F0E0808177
:1006200081608083E1EBF0E0808184608083E0EB97
:10063000F0E0808181608083EAE7F0E0808184607F
:1006400080838081826080838081816080838081DB
:10065000806880831092C1000895833081F028F46F
:10066000813099F08230A1F008958730A9F0883068
:10067000B9F08430D1F4809180008F7D03C08091E7
:1006800080008F7780938000089584B58F7702C0B3
:1006900084B58F7D84BD08958091B0008F7703C0AD
:1006A0008091B0008F7D8093B0000895CF93DF9349
:1006B00090E0FC01E458FF4F2491FC01E057FF4F0C
:1006C0008491882349F190E0880F991FFC01E2553D
:1006D000FF4FA591B4918C559F4FFC01C591D491CA
:1006E0009FB7611108C0F8948C91209582238C9358
:1006F000888182230AC0623051F4F8948C91322FA1
:10070000309583238C938881822B888304C0F8944E
:100710008C91822B8C939FBFDF91CF9108950F9383
:100720001F93CF93DF931F92CDB7DEB7282F30E012
:10073000F901E859FF4F8491F901E458FF4F1491F2
:10074000F901E057FF4F04910023C9F0882321F0FD
:1007500069830E942D036981E02FF0E0EE0FFF1FF7
:10076000EC55FF4FA591B4919FB7F8948C9161110E
:1007700003C01095812301C0812B8C939FBF0F90E4
:10078000DF91CF911F910F91089508950E94F20279
:100790000E94C5030E947C00C0E0D0E00E947D0062
:1007A0002097E1F30E940000F9CF0895EE0FFF1F9C
:0C07B0000590F491E02D0994F894FFCF1F
:00000001FF
