:100000000C9459000C9481000C9481000C94810094
:100010000C9481000C9481000C9481000C9481005C
:100020000C9481000C9481000C9481000C9481004C
:100030000C9481000C9481000C9481000C9481003C
:100040000C9469040C9481000C94DD060C940F0749
:100050000C9481000C9481000C9481000C9481001C
:100060000C943C030C948100000000080002010085
:100070000003040700000000000000000102040863
:100080001020408001020408102001020408102002
:10009000040404040404040402020202020203032E
:1000A0000303030300000000250028002B005A0270
:1000B0003F0711241FBECFEFD8E0DEBFCDBF11E058
:1000C000A0E0B1E0EEEAF7E102C005900D92AE3497
:1000D000B107D9F722E0AEE4B1E001C01D92A43B24
:1000E000B207E1F710E0C2EBD0E004C02297FE01B6
:1000F0000E94D10BCE3AD107C9F70E9483070C9416
:10010000D50B0C940000DC01ED91FC910190F08185
:10011000E02D099426E040E855E260E070E087E1D8
:1001200092E00E947B068EE491E00E941E0268E449
:1001300070E08EE491E00E9442026CEA70E08EE48E
:1001400091E00E94830062E070E08EE491E00E9402
:10015000830068E470E08EE491E00E9442026EEE5B
:1001600070E08EE491E00E9483008EE491E00E94B2
:1001700057028EE491E00E941E026FE470E08EE46C
:1001800091E00E9442026CEA70E08EE491E00E94ED
:10019000830062E070E08EE491E00E9483006FE4EF
:1001A00070E08EE491E00E9442026EEE70E08EE418
:1001B00091E00E9483008EE491E00C9457028F92AC
:1001C0009F92AF92BF92CF92DF92EF92FF921F93D6
:1001D000CF93DF9368E470E08EE491E00E944202E6
:1001E0006AEA70E08EE491E00E9483008EE491E080
:1001F0000E94570242E050E068E470E08EE491E033
:100200000E9435028EE491E00E948F01C82F8EE497
:1002100091E00E948F01D82F6C2F772767FD709592
:10022000872F972F0E94920A4B015C016FE470E0C8
:100230008EE491E00E9442026AEA70E08EE491E06E
:100240000E9483008EE491E00E94570242E050E059
:100250006FE470E08EE491E00E9435028EE491E05C
:100260000E948F01182F8EE491E00E948F01C82F09
:10027000612F772767FD7095872F972F0E94920A2D
:100280006B017C01DD2351F020E030E040E05FE3D2
:10029000C501B4010E948F094B015C01CC2351F0D0
:1002A00020E030E040E05FE3C701B6010E948F0923
:1002B0006B017C0160E071E087E192E00E94D00771
:1002C00022E030E0B501A40187E192E00E947B09C1
:1002D00060E171E087E192E00E94D00722E030E027
:1002E000B701A60187E192E00E947B0964EF71E00B
:1002F00080E090E0DF91CF911F91FF90EF90DF9031
:10030000CF90BF90AF909F908F900C94D604809127
:100310007E0190E020917F01821B91090895209138
:100320007F0180917E01281750F4E22FF0E0E05821
:10033000FE4F808190E02F5F20937F0108958FEF23
:100340009FEF0895E0917F0180917E01E81730F4DE
:10035000F0E0E058FE4F808190E008958FEF9FEF2E
:1003600008950895CF92DF92EF92FF920F931F931B
:10037000CF93DF937C01CB018A0120915A01222384
:1003800089F0EB016B01C40ED51ECC15DD0569F0BB
:100390006991D701ED91FC910190F081E02DC701A9
:1003A0000995F3CF642F0E941303C801DF91CF9109
:1003B0001F910F91FF90EF90DF90CF900895CF9312
:1003C000DF931F92CDB7DEB7698320915A012223B4
:1003D000D1F020915B01203240F021E030E0FC01BF
:1003E0003383228380E090E015C080915C01E82F88
:1003F000F0E0E35AFE4F998190838F5F80935C0118
:1004000080935B0105C061E0CE0101960E94130359
:1004100081E090E00F90DF91CF910895FC0113826D
:10042000128248EE53E060E070E0448355836683B7
:10043000778384E291E091838083089510927F0115
:1004400010927E0110925C0110925B010C945E028E
:10045000862F413208F040E260E871E00E947C02A1
:1004600010927F0180937E01089521E00C94280270
:1004700081E080935A0160937D0110925C0110929B
:100480005B0108950C9438020F93062F21E04091F0
:100490005B016DE571E080917D010E94C0021092C8
:1004A0005C0110925B0110925A010F91089561E076
:1004B0000C9444028EE491E00C940E0210920D0212
:1004C00081E080930B0210920A0261E082E10E94B7
:1004D000620561E083E10E946205E9EBF0E0808162
:1004E0008E7F808380818D7F808388E48093B800B5
:1004F00085E48093BC000895413208F03FC090919C
:100500000D029111FCCF91E090930D0220930B020C
:100510002FEF2093A0011092E501240F2093E40116
:1005200090930C0290910C02880F892B80930C02FF
:1005300080910A02813041F410920A0280910C02EB
:100540008093BB0085EC01C085EE8093BC00809158
:100550000D028130E1F38091E501841710F44091A0
:10056000E50126EE31E0FB01D9018A2F821B8417B9
:1005700018F48D918193F9CF842F089580E0089528
:100580000F93413208F046C090910D029111FCCFBB
:1005900092E090930D0200930B029FEF9093A001C5
:1005A0001092E5014093E401FB0166EE71E0DB018E
:1005B0009A2F961B941718F491919D93F9CF10924E
:1005C0000C0290910C02880F892B80930C02809171
:1005D0000A02813041F410920A0280910C02809349
:1005E000BB0085EC01C085EE8093BC00222321F086
:1005F00080910D028230E1F38091A0018F3F61F084
:100600008091A001803251F08091A001803341F4AB
:1006100083E007C081E005C080E003C082E001C044
:1006200084E00F910895613298F420910D022430F6
:1006300089F46093C201FC0184EC91E0DC012A2F73
:10064000281B261718F421912D93F9CF80E00895E7
:1006500081E0089582E0089585ED8093BC0080914B
:10066000BC0084FDFCCF10920D02089585EC8093B0
:10067000BC0010920D0208951F920F920FB60F92B8
:1006800011242F933F934F935F936F937F938F9397
:100690009F93AF93BF93EF93FF938091B900887FAF
:1006A000803609F49CC068F5883209F45BC090F488
:1006B000803109F454C038F4882309F4F5C0883037
:1006C00009F44DC0F5C0883109F44CC0803209F4FA
:1006D0005DC0EEC0803409F468C048F4803309F48A
:1006E00055C0883309F0E4C08093A001A8C08035CC
:1006F00009F44FC0883509F45DC0883409F0D8C0CA
:10070000D5C0883909F4C6C0A8F4883709F467C091
:1007100038F4883609F463C0803709F460C0C8C073
:10072000883809F4B7C0803909F45FC0803809F00F
:10073000BFC05BC0803B09F485C038F4803A09F43F
:1007400066C0883A09F47EC0B3C0803C09F4A6C0F4
:10075000883C09F4A3C0883B09F489C0A9C08091F2
:100760000C0210C09091E5018091E401981770F59A
:10077000E091E50181E08E0F8093E501F0E0EA5120
:10078000FE4F80818093BB0085EC85C08093A001E3
:100790008DC0E091E50181E08E0F8093E5018091AD
:1007A000BB00F0E0EA51FE4F80839091E50180911B
:1007B000E4016DC0E091E50181E08E0F8093E501D9
:1007C0008091BB00F0E0EA51FE4F808380910B02E4
:1007D00081116CC081E080930A0284EA60C083E0EA
:1007E00080930D021092A101CFCF8091A1018032A0
:1007F00008F050C0E091A10181E08E0F8093A1012B
:100800008091BB00F0E0EE55FE4F8083BDCF80911C
:10081000A101803230F4E091A101F0E0EE55FE4FED
:1008200010820E942C036091A10170E0E091060209
:10083000F091070282EA91E009951092A1010E94CD
:10084000360336C084E080930D021092C3011092EB
:10085000C201E0910802F091090209958091C2015C
:10086000811105C081E08093C2011092C401E09122
:10087000C30181E08E0F8093C301F0E0EC53FE4F83
:1008800080818093BB009091C3018091C201981731
:1008900008F47ACF85E88093BC000AC085EC809389
:1008A000BC0010920D0204C01092A0010E942C0303
:1008B000FF91EF91BF91AF919F918F917F916F9138
:1008C0005F914F913F912F910F900FBE0F901F900E
:1008D00018951F920F920FB60F9211242F933F93EA
:1008E0008F939F93AF93BF9380910F0290911002CB
:1008F000A0911102B091120230910E0223E0230F59
:100900002D3720F40196A11DB11D05C026E8230F47
:100910000296A11DB11D20930E0280930F029093A9
:100920001002A0931102B0931202809113029091D1
:100930001402A0911502B09116020196A11DB11DDD
:100940008093130290931402A0931502B0931602A1
:10095000BF91AF919F918F913F912F910F900FBEBB
:100960000F901F9018953FB7F894809113029091C3
:100970001402A0911502B091160226B5A89B05C0DD
:100980002F3F19F00196A11DB11D3FBF6627782F9B
:10099000892F9A2F620F711D811D911D42E0660FF4
:1009A000771F881F991F4A95D1F70895CF92DF923C
:1009B000EF92FF92CF93DF936B017C010E94B3040F
:1009C000EB01C114D104E104F10489F00E948D0906
:1009D0000E94B3046C1B7D0B683E734090F381E072
:1009E000C81AD108E108F108C851DC4FEACFDF91FD
:1009F000CF91FF90EF90DF90CF900895789484B5D9
:100A0000826084BD84B5816084BD85B5826085BD0A
:100A100085B5816085BDEEE6F0E0808181608083F0
:100A2000E1E8F0E0108280818260808380818160D3
:100A30008083E0E8F0E0808181608083E1EBF0E09A
:100A4000808184608083E0EBF0E08081816080833E
:100A5000EAE7F0E080818460808380818260808327
:100A60008081816080838081806880831092C10052
:100A70000895833081F028F4813099F08230A1F01C
:100A800008958730A9F08830B9F08430D1F480918E
:100A900080008F7D03C0809180008F7780938000DD
:100AA000089584B58F7702C084B58F7D84BD089585
:100AB0008091B0008F7703C08091B0008F7D8093CC
:100AC000B00008950F931F93CF93DF931F92CDB77C
:100AD000DEB7282F30E0F901E859FF4F8491F90182
:100AE000E458FF4F1491F901E057FF4F04910023A0
:100AF000C9F0882321F069830E9439056981E02FBC
:100B0000F0E0EE0FFF1FEC55FF4FA591B4919FB79A
:100B1000F8948C91611103C01095812301C0812B41
:100B20008C939FBF0F90DF91CF911F910F910895EC
:100B3000FC01818D228D90E0805C9F4F821B91098A
:100B40008F7399270895FC01918D828D981731F04C
:100B5000828DE80FF11D858D90E008958FEF9FEF56
:100B60000895FC01918D828D981761F0828DDF01CF
:100B7000A80FB11D5D968C91928D9F5F9F73928F90
:100B800090E008958FEF9FEF089585E397E0892B1C
:100B900049F080E090E0892B29F00E94350781110F
:100BA0000C9400000895FC01848DDF01A80FB11D95
:100BB000A35ABF4F2C91848D90E001968F73992793
:100BC000848FA689B7892C93A089B1898C91806480
:100BD0008C93938D848D981306C00288F389E02D41
:100BE00080818F7D80830895CF93DF93EC01888D82
:100BF0008823C9F0EA89FB89808185FD05C0A88921
:100C0000B9898C9186FD0FC00FB607FCF5CF8081A6
:100C100085FFF2CFA889B9898C9185FFEDCFCE01F0
:100C20000E94D305E7CFDF91CF910895CF92DF9255
:100C3000FF920F931F93CF93DF931F92CDB7DEB731
:100C40006C01DC015B969C915B975C968C915C9748
:100C5000981307C05096ED91FC915197808185FDC6
:100C600032C0F601038D10E00F5F1F4F0F73112785
:100C7000F02EF601848DF81211C00FB607FCF9CFE3
:100C8000D6015096ED91FC915197808185FFF1CF6F
:100C9000C60169830E94D3056981EBCF838DE80F7C
:100CA000F11DE35AFF4F6083D6015B960C935B976F
:100CB0005296ED91FC91539780818062808381E010
:100CC00058968C930DC0D6015696ED91FC9157978E
:100CD00060835096ED91FC91519780818064808370
:100CE00081E090E00F90DF91CF911F910F91FF90E5
:100CF000DF90CF900895BF92CF92DF92EF92FF9254
:100D0000CF93DF93EC016A017B01B22EE889F98968
:100D100082E08083411581EE580761057105A1F0DD
:100D200060E079E08DE390E0A70196010E94AD0BB1
:100D30002150310941095109569547953795279515
:100D4000211580E1380798F0E889F989108260E878
:100D500074E88EE190E0A70196010E94AD0B21504E
:100D60003109410951095695479537952795EC85E5
:100D7000FD853083EE85FF852083188EEC89FD8903
:100D8000B082EA89FB89808180618083EA89FB895E
:100D9000808188608083EA89FB8980818068808384
:100DA000EA89FB8980818F7D8083DF91CF91FF90DD
:100DB000EF90DF90CF90BF9008951F920F920FB6E3
:100DC0000F9211242F938F939F93EF93FF93E091B2
:100DD0002702F09128028081E0912D02F0912E02ED
:100DE00082FD12C09081809130028F5F8F732091BD
:100DF0003102821751F0E0913002F0E0E95EFD4FE0
:100E0000958F8093300201C08081FF91EF919F9177
:100E10008F912F910F900FBE0F901F9018951F92DA
:100E20000F920FB60F9211242F933F934F935F931E
:100E30006F937F938F939F93AF93BF93EF93FF93A2
:100E400087E192E00E94D305FF91EF91BF91AF91AE
:100E50009F918F917F916F915F914F913F912F91D2
:100E60000F900FBE0F901F90189587E192E00E949F
:100E7000980521E0892B09F420E0822F0895109233
:100E80001A021092190288EE93E0A0E0B0E080937D
:100E90001B0290931C02A0931D02B0931E0284E3D8
:100EA00091E0909318028093170285EC90E0909364
:100EB00024028093230284EC90E090932602809396
:100EC000250280EC90E0909328028093270281EC29
:100ED00090E090932A028093290282EC90E0909314
:100EE0002C0280932B0286EC90E090932E0280934C
:100EF0002D021092300210923102109232021092A2
:100F00003302089508950E94FE040E9482070E9401
:100F10008A00C5ECD5E00E94DF002097E1F30E9433
:100F2000C505F9CFCF92DF92EF92FF920F931F93F7
:100F3000CF93DF936C017A01EB01E60EF71E00E020
:100F400010E0CE15DF0561F06991D601ED91FC91BD
:100F50000190F081E02DC6010995080F191FF1CF0E
:100F6000C801DF91CF911F910F91FF90EF90DF901B
:100F7000CF9008956115710581F0DB010D9000207F
:100F8000E9F7AD0141505109461B570BDC01ED91CA
:100F9000FC910280F381E02D099480E090E00895B7
:100FA0000C94BA07DC01ED91FC910190F081E02DE9
:100FB00009940F931F93CF93DF93EC016DE00E9490
:100FC000D2078C016AE0CE010E94D207800F911FE8
:100FD000DF91CF911F910F9108958F929F92AF92C1
:100FE000BF92CF92DF92EF92FF920F931F93CF9316
:100FF000DF93CDB7DEB7A1970FB6F894DEBF0FBE73
:10100000CDBF7C01C42EE52FCB01D22E19A221E049
:101010002D1510F02AE0D22E8E010F5D1F4F8D2C62
:10102000912CA12CB12C6C2D7E2FA50194010E9436
:10103000AD0B8C2DD29E80191124015011098A30DC
:1010400014F4805D01C0895CF801808321153105AD
:101050004105510521F0C22EE32FCA01E4CFB801AA
:10106000C7010E94BA07A1960FB6F894DEBF0FBE63
:10107000CDBFDF91CF911F910F91FF90EF90DF9047
:10108000CF90BF90AF909F908F900895CF92DF92B6
:10109000EF92FF920F931F93CF93DF93EC016A01BE
:1010A0007B012115310579F4E881F9810190F08106
:1010B000E02D642FDF91CF911F910F91FF90EF9062
:1010C000DF90CF9009942A303105E9F477FF1AC0F8
:1010D0006DE20E94D2078C0144275527BA014C19B2
:1010E0005D096E097F092AE0CE010E94ED07800F9D
:1010F000911FDF91CF911F910F91FF90EF90DF90A3
:10110000CF9008952AE0B701A601CE01DF91CF91DB
:101110001F910F91FF90EF90DF90CF900C94ED070F
:101120004F925F926F927F928F929F92AF92BF92F7
:10113000CF92DF92EF92FF920F931F93CF93DF93A3
:10114000EC016A017B01B22E9A01AB01C701B60125
:101150000E94A90B882319F060E471E027C02601E2
:101160003701E89477F82FEF3FEF4FE75FE7C301D0
:10117000B2010E94A90B81110DC02FEF3FEF4FE785
:101180005FE7C301B2010E94F30918161CF464E47E
:1011900071E00CC02FEF3FEF4FE75FE4C701B601EE
:1011A0000E94420B1816ACF468E471E0CE01DF91A6
:1011B000CF911F910F91FF90EF90DF90CF90BF9054
:1011C000AF909F908F907F906F905F904F900C9416
:1011D000BA072FEF3FEF4FE75FECC701B6010E9460
:1011E000F30987FDE1CF20E030E0A901C701B60196
:1011F0000E94F30987FF0AC06DE2CE010E94D20768
:101200008C01F7FAF094F7F8F09402C000E010E0D7
:10121000A12C60E070E080E09FE3AB1441F020E09F
:1012200030E040E251E40E94F709A394F6CF9B011D
:10123000AC01C701B6010E948F096B017C010E94BD
:10124000640A2B013C010E94900A9B01AC01C7017A
:10125000B6010E948E096B017C012AE0B301A20154
:10126000CE010E94ED07080F191FBB2039F06CE476
:1012700071E0CE010E94BA07080F191F7B2C77205E
:1012800041F120E030E040E251E4C701B6010E94A4
:10129000460B6B017C010E945F0A4B01AA2497FC5C
:1012A000A094BA2C2AE030E0B501A401CE010E943E
:1012B0004608080F191FC501B4010E94920A9B013C
:1012C000AC01C701B6010E948E096B017C017A94C2
:1012D000D6CFC801DF91CF911F910F91FF90EF9072
:1012E000DF90CF90BF90AF909F908F907F906F9046
:1012F0005F904F9008950F931F93CF93DF93EC016E
:101300000E9490088C01CE010E94D907800F911F86
:10131000DF91CF911F910F91089508955058BB27E9
:10132000AA270ED075C166D130F06BD120F031F410
:101330009F3F11F41EF45BC10EF4E095E7FB51C131
:10134000E92F77D180F3BA176207730784079507EF
:1013500018F071F49EF58FC10EF4E0950B2EBA2FA4
:10136000A02D0B01B90190010C01CA01A0011124AB
:10137000FF27591B99F0593F50F4503E68F11A1657
:10138000F040A22F232F342F4427585FF3CF4695E8
:1013900037952795A795F0405395C9F77EF41F160A
:1013A000BA0B620B730B840BBAF09150A1F0FF0FD4
:1013B000BB1F661F771F881FC2F70EC0BA0F621FC0
:1013C000731F841F48F4879577956795B795F795B0
:1013D0009E3F08F0B3CF9395880F08F09927EE0F42
:1013E000979587950895D9D008F481E008950CD099
:1013F0000FC107D140F0FED030F021F45F3F19F06B
:10140000F0C0511139C1F3C014D198F39923C9F335
:101410005523B1F3951B550BBB27AA2762177307FA
:10142000840738F09F5F5F4F220F331F441FAA1FAE
:10143000A9F333D00E2E3AF0E0E830D0915050406E
:10144000E695001CCAF729D0FE2F27D0660F771F1C
:10145000881FBB1F261737074807AB07B0E809F0FE
:10146000BB0B802DBF01FF2793585F4F2AF09E3F93
:10147000510568F0B6C000C15F3FECF3983EDCF365
:10148000869577956795B795F7959F5FC9F7880F0C
:10149000911D9695879597F90895E1E0660F771F5E
:1014A000881FBB1F621773078407BA0720F0621BEF
:1014B000730B840BBA0BEE1F88F7E095089504D0E8
:1014C0006894B111D9C00895BCD088F09F5790F0AE
:1014D000B92F9927B751A0F0D1F0660F771F881F59
:1014E000991F1AF0BA95C9F712C0B13081F0C3D074
:1014F000B1E00895C0C0672F782F8827B85F39F012
:10150000B93FCCF3869577956795B395D9F73EF4B7
:1015100090958095709561957F4F8F4F9F4F08955F
:10152000E89409C097FB3EF490958095709561957D
:101530007F4F8F4F9F4F9923A9F0F92F96E9BB2733
:101540009395F695879577956795B795F111F8CFAF
:10155000FAF4BB0F11F460FF1BC06F5F7F4F8F4F1A
:101560009F4F16C0882311F096E911C0772321F010
:101570009EE8872F762F05C0662371F096E8862FA8
:1015800070E060E02AF09A95660F771F881FDAF7FF
:10159000880F9695879597F90895990F0008550F2C
:1015A000AA0BE0E8FEEF16161706E807F907C0F0E9
:1015B00012161306E407F50798F0621B730B840BF1
:1015C000950B39F40A2661F0232B242B252B21F4CB
:1015D00008950A2609F4A140A6958FEF811D811D6B
:1015E000089597F99F6780E870E060E008959FEFA5
:1015F00080EC089500240A941616170618060906AA
:10160000089500240A941216130614060506089578
:10161000092E0394000C11F4882352F0BB0F40F400
:10162000BF2B11F460FF04C06F5F7F4F8F4F9F4F40
:10163000089557FD9058440F551F59F05F3F71F0C2
:101640004795880F97FB991F61F09F3F79F0879529
:101650000895121613061406551FF2CF4695F1DFB2
:1016600008C0161617061806991FF1CF8695710542
:10167000610508940895E894BB2766277727CB0176
:1016800097F908958ADF08F48FEF08950BD0C0CF43
:10169000B1DF28F0B6DF18F0952309F0A2CFA7CF6D
:1016A0001124EACFC6DFA0F3959FD1F3950F50E048
:1016B000551F629FF001729FBB27F00DB11D639F04
:1016C000AA27F00DB11DAA1F649F6627B00DA11DAA
:1016D000661F829F2227B00DA11D621F739FB00D50
:1016E000A11D621F839FA00D611D221F749F3327C0
:1016F000A00D611D231F849F600D211D822F762F59
:101700006A2F11249F5750408AF0E1F088234AF055
:10171000EE0FFF1FBB1F661F771F881F91505040A1
:10172000A9F79E3F510570F05CCFA6CF5F3FECF369
:10173000983EDCF3869577956795B795F795E7958D
:101740009F5FC1F7FE2B880F911D9695879597F99E
:10175000089523DF880B990B0895A1E21A2EAA1B86
:10176000BB1BFD010DC0AA1FBB1FEE1FFF1FA21751
:10177000B307E407F50720F0A21BB30BE40BF50B4E
:10178000661F771F881F991F1A9469F760957095D7
:10179000809590959B01AC01BD01CF010895EE0F9E
:0E17A000FF1F0590F491E02D0994F894FFCFFF
:1017AE0054656D706572617475726520313A2000F2
:1017BE0054656D706572617475726520323A2000E1
:1017CE0000000000DF01B20187018F01A201B1010B
:1017DE0000000000160692079805B105A305F40552
:0E17EE006E616E00696E66006F7666002E00FA
:00000001FF
