:100000000C945E000C9486000C9486000C94860080
:100010000C9486000C9486000C9486000C94860048
:100020000C9486000C9486000C9486000C94460177
:100030000C9486000C9486000C9486000C94860028
:100040000C9448030C9486000C9412060C944406FD
:100050000C9486000C9486000C9486000C94860008
:100060000C9486000C948600000000080002010039
:100070000003040700000000000000000102040863
:100080001020408001020408102001020408102002
:10009000040404040404040402020202020203032E
:1000A0000303030300000000250028002B000000CC
:1000B0000000240027002A004201740611241FBEFC
:1000C000CFEFD8E0DEBFCDBF11E0A0E0B1E0ECE4BF
:1000D000F1E102C005900D92AA34B107D9F722E0F0
:1000E000AAE4B1E001C01D92AD31B207E1F710E022
:1000F000CCEBD0E004C02297FE010E949108C83BDF
:10010000D107C9F70E94B8060C94A4080C9400000B
:1001100026E040E855E260E070E080E891E00E946F
:10012000B00565E071E080E891E00E94220764E696
:1001300070E080E090E00C94B50368E070E08AE441
:1001400091E00E949C0260914D0170914E018AE401
:1001500091E00E94E30263E171E080E891E00E9497
:10016000050760914D0170914E014AE050E080E832
:1001700091E00E94D70762E271E080E891E00E947E
:10018000220764E670E080E090E00E94B5038AE414
:1001900091E00C94A20269E070E08AE491E00E9490
:1001A0009C0264EB70E080914D0190914E01681BC0
:1001B000790B70934E0160934D018AE491E00E94A7
:1001C000E3026BE271E080E891E00E940507609134
:1001D0004D0170914E014AE050E080E891E00E94AC
:1001E000D70762E271E080E891E00E94220764E6AE
:1001F00070E080E090E00E94B5038AE491E00C9406
:10020000A202AF92BF92CF92DF92EF92FF920F9332
:100210001F938EE00E9418049093500180934F0129
:10022000BC01882777FD8095982F1F921F921F92FF
:1002300024EB2F93A12CB12C6501EE24EA9413E05A
:10024000F12E00E010E020E030E0A9010E94DF077D
:1002500070934E0160934D010E949D000E94CB005F
:100260000F900F900F900F9068EE73E080E090E099
:100270001F910F91FF90EF90DF90CF90BF90AF90C4
:100280000C94B5038AE491E00C9402021F920F9241
:100290000FB60F9211242F933F934F935F936F9359
:1002A0007F938F939F93AF93BF93EF93FF9380912F
:1002B000520187FF05C010928500109284001AC079
:1002C00020915201332727FD30958091510190E014
:1002D000281739077CF480915201992787FD909562
:1002E000FC01EE0FFF1FE80FF91FED5AFE4F808152
:1002F00086FD15C0809152018F5F8093520120913D
:100300005201332727FD30958091510190E0281745
:100310003907BCF4809152018C305CF112C080919D
:100320005201992787FD9095FC01EE0FFF1FE80F02
:10033000F91FED5AFE4F808160E08F730E94970491
:10034000D9CF8091840090918500049680349C4997
:1003500018F480E49CE905C08091840090918500A8
:10036000049690938900809388008FEF80935201C8
:1003700038C02091840030918500809152019927E6
:1003800087FD9095FC01EE0FFF1FE80FF91FED5A56
:10039000FE4F81819281820F931F909389008093F9
:1003A000880080915201992787FD9095FC01EE0FFE
:1003B000FF1FE80FF91FED5AFE4F808186FF11C025
:1003C00080915201992787FD9095FC01EE0FFF1F48
:1003D000E80FF91FED5AFE4F808161E08F730E9494
:1003E0009704FF91EF91BF91AF919F918F917F9172
:1003F0006F915F914F913F912F910F900FBE0F9092
:100400001F901895209151012C30A0F431E0320F4B
:1004100030935101FC012083822F90E0FC01EE0F0C
:10042000FF1FE80FF91FED5AFE4F88EB9BE0928308
:10043000818308952FEFFC0120830895DF92EF92CE
:10044000FF920F931F93CF93DF93EC01D62E7A0187
:10045000890188818C3008F066C061E08D2D0E9492
:100460005E048881A82FB0E0FD01EE0FFF1FEA0FA8
:10047000FB1FED5AFE4F2D2D2F739081907C922BF8
:10048000908360E272E06E197F0977FF02C06D5FB2
:100490007F4F7595679575956795698340E659E037
:1004A000401B510B57FF02C04D5F5F4F559547955D
:1004B000559547954A836CE00E9437089CE0899FD8
:1004C000B001112420E030E0A901460F571FFA01C6
:1004D000EE0FFF1FE40FF51FED5AFE4F908196FDC2
:1004E00016C02F5F3F4F2C30310571F781110FC0BF
:1004F0001092800082E0809381001092850010921B
:100500008400B19A80916F00826080936F0088812F
:1005100090E0FC01EE0FFF1FE80FF91FED5AFE4FB0
:100520008081806480838881DF91CF911F910F91BA
:10053000FF90EF90DF90089520E639E040E252E02E
:100540000C941E02FC01808190E0FC01EE0FFF1F65
:10055000E80FF91FED5AFE4F80818F7B808308954D
:10056000FC0180818C3070F5918128E830E0291BF6
:10057000310997FD3395220F331F220F331F621766
:1005800073077CF0928128E532E0291B310997FD41
:100590003395220F331F220F331F621773070CF49A
:1005A0009B0122503109220F331F4FB7F89490E07E
:1005B000FC01EE0FFF1FE80FF91FED5AFE4F3283CB
:1005C00021834FBF08954F925F926F927F92AF92B7
:1005D000BF92CF92DF92EF92FF920F931F93CF9330
:1005E000DF93EC01603282E078070CF040C077FDC9
:1005F00006C0653B71052CF064EB70E002C060E062
:1006000070E0898128E830E0281B310987FD3395A7
:10061000220F331F220F331F5901CC24B7FCC09483
:10062000DC2C882777FD8095982F2A8148E552E0B9
:10063000421B510927FD5395440F551F440F551F69
:100640002A01662457FC6094762C7F926F925F9209
:100650004F9214EBE12EF12C00E010E020E030E0AE
:10066000A9010E94DF070F900F900F900F90CE010D
:10067000DF91CF911F910F91FF90EF90DF90CF907E
:10068000BF90AF907F906F905F904F900C94B002AE
:100690001F920F920FB60F9211242F933F938F93B7
:1006A0009F93AF93BF938091780190917901A0912E
:1006B0007A01B0917B013091770123E0230F2D3730
:1006C00020F40196A11DB11D05C026E8230F029656
:1006D000A11DB11D2093770180937801909379013A
:1006E000A0937A01B0937B0180917C0190917D0170
:1006F000A0917E01B0917F010196A11DB11D809353
:100700007C0190937D01A0937E01B0937F01BF9106
:10071000AF919F918F913F912F910F900FBE0F90AE
:100720001F9018953FB7F89480917C0190917D01BE
:10073000A0917E01B0917F0126B5A89B05C02F3FF7
:1007400019F00196A11DB11D3FBF6627782F892F93
:100750009A2F620F711D811D911D42E0660F771F58
:10076000881F991F4A95D1F70895CF92DF92EF9293
:10077000FF92CF93DF936B017C010E949203EB0108
:10078000C114D104E104F10489F00E9426080E94FA
:1007900092036C1B7D0B683E734090F381E0C81A96
:1007A000D108E108F108C851DC4FEACFDF91CF91C1
:1007B000FF90EF90DF90CF900895789484B5826099
:1007C00084BD84B5816084BD85B5826085BD85B5F5
:1007D000816085BDEEE6F0E0808181608083E1E8A4
:1007E000F0E01082808182608083808181608083DC
:1007F000E0E8F0E0808181608083E1EBF0E08081DF
:1008000084608083E0EBF0E0808181608083EAE7B0
:10081000F0E0808184608083808182608083808139
:10082000816080838081806880831092C1000895F8
:100830008E3008F08E5087702091040190E4299F3B
:1008400090011124822B80937C0080917A00806437
:1008500080937A0080917A0086FDFCCF80917800A9
:100860002091790090E0922B0895833081F028F454
:10087000813099F08230A1F008958730A9F0883056
:10088000B9F08430D1F4809180008F7D03C08091D5
:1008900080008F7780938000089584B58F7702C0A1
:1008A00084B58F7D84BD08958091B0008F7703C09B
:1008B0008091B0008F7D8093B0000895CF93DF9337
:1008C00090E0FC01E458FF4F2491FC01E057FF4FFA
:1008D0008491882349F190E0880F991FFC01E2552B
:1008E000FF4FA591B4918C559F4FFC01C591D491B8
:1008F0009FB7611108C0F8948C91209582238C9346
:10090000888182230AC0623051F4F8948C91322F8E
:10091000309583238C938881822B888304C0F8943C
:100920008C91822B8C939FBFDF91CF9108950F9371
:100930001F93CF93DF931F92CDB7DEB7282F30E000
:10094000F901E859FF4F8491F901E458FF4F1491E0
:10095000F901E057FF4F04910023C9F0882321F0EB
:1009600069830E9435046981E02FF0E0EE0FFF1FDC
:10097000EC55FF4FA591B4919FB7F8948C916111FC
:1009800003C01095812301C0812B8C939FBF0F90D2
:10099000DF91CF911F910F910895FC01818D228DE0
:1009A00090E0805C9F4F821B91098F739927089577
:1009B000FC01918D828D981731F0828DE80FF11D29
:1009C000858D90E008958FEF9FEF0895FC01918D44
:1009D000828D981761F0828DDF01A80FB11D5D96A1
:1009E0008C91928D9F5F9F73928F90E008958FEF0F
:1009F0009FEF08958AE696E0892B49F080E090E029
:100A0000892B29F00E946A0681110C940000089538
:100A1000FC01848DDF01A80FB11DA35ABF4F2C919B
:100A2000848D90E001968F739927848FA689B7896A
:100A30002C93A089B1898C9180648C93938D848D43
:100A4000981306C00288F389E02D80818F7D808312
:100A50000895CF93DF93EC01888D8823C9F0EA894C
:100A6000FB89808185FD05C0A889B9898C9186FDA7
:100A70000FC00FB607FCF5CF808185FFF2CFA889A4
:100A8000B9898C9185FFEDCFCE010E940805E7CF93
:100A9000DF91CF910895CF92DF92FF920F931F9332
:100AA000CF93DF931F92CDB7DEB76C01DC015B966D
:100AB0009C915B975C968C915C97981307C05096BD
:100AC000ED91FC915197808185FD32C0F601038D37
:100AD00010E00F5F1F4F0F731127F02EF601848D6A
:100AE000F81211C00FB607FCF9CFD6015096ED9160
:100AF000FC915197808185FFF1CFC60169830E94E7
:100B000008056981EBCF838DE80FF11DE35AFF4F94
:100B10006083D6015B960C935B975296ED91FC91A6
:100B2000539780818062808381E058968C930DC0BA
:100B3000D6015696ED91FC91579760835096ED91B2
:100B4000FC91519780818064808381E090E00F90D8
:100B5000DF91CF911F910F91FF90DF90CF9008957B
:100B6000BF92CF92DF92EF92FF92CF93DF93EC018F
:100B70006A017B01B22EE889F98982E08083411500
:100B800081EE580761057105A1F060E079E08DE321
:100B900090E0A70196010E944308215031094109C4
:100BA00051095695479537952795211580E13807C6
:100BB00098F0E889F989108260E874E88EE190E0A5
:100BC000A70196010E9443082150310941095109AA
:100BD0005695479537952795EC85FD853083EE85AD
:100BE000FF852083188EEC89FD89B082EA89FB8914
:100BF000808180618083EA89FB898081886080832D
:100C0000EA89FB89808180688083EA89FB89808109
:100C10008F7D8083DF91CF91FF90EF90DF90CF9019
:100C2000BF9008951F920F920FB60F9211242F9329
:100C30008F939F93EF93FF93E0919001F091910137
:100C40008081E0919601F091970182FD12C0908120
:100C5000809199018F5F8F7320919A01821751F0D3
:100C6000E0919901F0E0E058FE4F958F8093990153
:100C700001C08081FF91EF919F918F912F910F90F3
:100C80000FBE0F901F9018951F920F920FB60F92E4
:100C900011242F933F934F935F936F937F938F9381
:100CA0009F93AF93BF93EF93FF9380E891E00E94EF
:100CB0000805FF91EF91BF91AF919F918F917F9127
:100CC0006F915F914F913F912F910F900FBE0F90B9
:100CD0001F90189580E891E00E94CD0421E0892BB7
:100CE00009F420E0822F089510928301109282016E
:100CF00088EE93E0A0E0B0E08093840190938501BA
:100D0000A0938601B09387018EE391E090938101D7
:100D10008093800185EC90E090938D0180938C010D
:100D200084EC90E090938F0180938E0180EC90E0B2
:100D3000909391018093900181EC90E090939301C6
:100D40008093920182EC90E09093950180939401BE
:100D500086EC90E090939701809396011092990110
:100D600010929A0110929B0110929C01089508958F
:100D70000E94DD030E94B7060E948800CAEFD4E0FB
:100D80000E9401012097E1F30E94FA04F9CFCF926B
:100D9000DF92EF92FF920F931F93CF93DF936C013B
:100DA0007A01EB01E60EF71E00E010E0CE15DF053C
:100DB00061F06991D601ED91FC910190F081E02DF7
:100DC000C6010995080F191FF1CFC801DF91CF9116
:100DD0001F910F91FF90EF90DF90CF9008956115D4
:100DE000710581F0DB010D900020E9F7AD01415064
:100DF0005109461B570BDC01ED91FC910280F381F8
:100E0000E02D099480E090E008950C94EF06DC0159
:100E1000ED91FC910190F081E02D09940F931F93C7
:100E2000CF93DF93EC016DE00E9407078C016AE02D
:100E3000CE010E940707800F911FDF91CF911F9174
:100E40000F9108950F931F93CF93DF93EC010E94AE
:100E5000EF068C01CE010E940E07800F911FDF91DB
:100E6000CF911F910F9108958F929F92AF92BF9251
:100E7000CF92DF92EF92FF920F931F93CF93DF9366
:100E8000CDB7DEB7A1970FB6F894DEBF0FBECDBFCA
:100E90007C01C42EE52FCB01D22E19A221E02D1505
:100EA00010F02AE0D22E8E010F5D1F4F8D2C912C59
:100EB000A12CB12C6C2D7E2FA50194010E9443081A
:100EC0008C2DD29E80191124015011098A3014F4FE
:100ED000805D01C0895CF8018083211531054105E1
:100EE000510521F0C22EE32FCA01E4CFB801C7019A
:100EF0000E94EF06A1960FB6F894DEBF0FBECDBFDD
:100F0000DF91CF911F910F91FF90EF90DF90CF90E5
:100F1000BF90AF909F908F900895CF92DF92EF9205
:100F2000FF920F931F93CF93DF93EC016A017B0134
:100F30002115310579F4E881F9810190F081E02DE6
:100F4000642FDF91CF911F910F91FF90EF90DF9071
:100F5000CF9009942A303105E9F477FF1AC06DE289
:100F60000E9407078C0144275527BA014C195D09D7
:100F70006E097F092AE0CE010E943407800F911F7D
:100F8000DF91CF911F910F91FF90EF90DF90CF9065
:100F900008952AE0B701A601CE01DF91CF911F91FC
:100FA0000F91FF90EF90DF90CF900C9434079A014F
:100FB000AB01662757FD6095762F0C948D074F92F5
:100FC0005F926F927F92AF92BF92CF92DF92EF9239
:100FD000FF920F931F93CF93DF93CDB7DEB7290115
:100FE0003A01621B730B840B950B29893A894B8953
:100FF0005C892A193B094C095D09298B3A8B4B8B7B
:101000005C8B9B01AC0169897A898B899C890E94E0
:101010002708E418F50806091709A80197010E9496
:1010200065082A0D3B1D4C1D5D1DCA01B901DF91EC
:10103000CF911F910F91FF90EF90DF90CF90BF90D5
:10104000AF907F906F905F904F9008950895DB016F
:101050008F939F930E948408BF91AF91A29F800DB0
:10106000911DA39F900DB29F900D11240895991B7F
:1010700079E004C0991F961708F0961B881F7A958F
:10108000C9F780950895A1E21A2EAA1BBB1BFD018A
:101090000DC0AA1FBB1FEE1FFF1FA217B307E40757
:1010A000F50720F0A21BB30BE40BF50B661F771FAF
:1010B000881F991F1A9469F760957095809590958F
:1010C0009B01AC01BD01CF010895052E97FB1EF4D5
:1010D00000940E947C0857FD07D00E94430807FC3B
:1010E00003D04EF40C947C08509540953095219592
:1010F0003F4F4F4F5F4F0895909580957095619544
:101100007F4F8F4F9F4F08950E949508A59F900D88
:10111000B49F900DA49F800D911D11240895EE0F92
:10112000FF1F0590F491E02D0994A29FB001B39F99
:10113000C001A39F700D811D1124911DB29F700DE0
:0C114000811D1124911D0895F894FFCF2B
:10114C00010000000141726475696E6F2073657255
:10115C00766F00537564757420736572766F2031E9
:10116C00200020646572616A617400537564757443
:10117C0020736572766F20322000000000004B0552
:0A118C00C706CD04E604D8042905C7
:00000001FF
