:100000000C9479000C94A1000C94A1000C94A10014
:100010000C94A1000C94A1000C94A1000C94A100DC
:100020000C94A1000C94A1000C94A1000C94A100CC
:100030000C94A1000C94A1000C94A1000C94A100BC
:100040000C9402040C94A1000C94A1000C94A10047
:100050000C94A1000C94A1000C94A1000C94A1009C
:100060000C94A1000C94A100DA00DC00DC00DC00A0
:10007000DC00DC00DC00D700DC00DC00DC00DC00A5
:10008000DC00CF00BC00BE00C000C200C400C6003F
:10009000C800CA00CC0000000008000201000003F4
:1000A0000407000000000000000001020408102006
:1000B00040800102040810200102040810200404FA
:1000C0000404040404040202020202020303030300
:1000D00003030000000023002600290000000000A8
:1000E000250028002B0000000000240027002A0023
:1000F000DD0011241FBECFEFD8E0DEBFCDBF11E081
:10010000A0E0B1E0E8EDFAE002C005900D92AE315A
:10011000B107D9F721E0AEE1B1E001C01D92A839E5
:10012000B207E1F710E0C2EFD0E004C02297FE0171
:100130000E946605C03FD107C9F70E9455050C947F
:100140006A050C94000010921F0110921E01089580
:100150008FE084B980E291E00E94E103992787FD56
:100160009095A92FB92FFC01B397E731F10520F540
:10017000EC5CFF4F0C94640588E00FC084E00DC078
:100180008CE00BC082E009C08AE007C086E005C0B1
:100190008EE003C081E001C089E085B901C015B8D7
:1001A00085B190E090931F0180931E010895809186
:1001B0001E0101C08FE085B90895EF920F9383E08F
:1001C000E82E04E020E031E043E051E067E071E038
:1001D00080E291E00E9400010F91EF900895FC01F0
:1001E00010821482138215820895862F642F0C9436
:1001F000BC04862F642F0C94F504862F0C942B05D9
:100200004F925F926F927F928F929F92AF92BF9226
:10021000CF92DF92EF920F93CF93DF93EC014B01DC
:100220003A01590102960E94EF0087E191E099831B
:1002300088836E018CE1C80ED11C26018CE3480E28
:10024000511CC6010E94EF0086E0C80ED11CC414E8
:10025000D504B9F7FE01EE59FF4F718260823296E4
:10026000B182A082329600833196E08237979182E4
:10027000808238968AE090E091838083329684EF82
:1002800091E091838083339611821082719710825E
:10029000118212821382C459DF4F1882DF91CF91ED
:1002A0000F91EF90DF90CF90BF90AF909F908F9085
:1002B0007F906F905F904F9008952F923F924F9252
:1002C0005F926F927F928F929F92AF92BF92CF92E6
:1002D000DF92EF92FF920F931F93CF93DF93CDB7EF
:1002E000DEB728970FB6F894DEBF0FBECDBF988754
:1002F0008F83F12C4C0186E6880E911C0F811885A6
:100300000E591F4FD4018C91F816A0F4AF81B88517
:100310008D919C91F801A081B181AF0DB11DFC01BF
:100320002081318142E06C918F819885F901099596
:10033000F394E8CF512CEF81F885E959FF4FFA8308
:10034000E9830F8118850C591F4FC12CD12C7601E0
:10035000C3948F8198858E599F4F9C838B83A981ED
:10036000BA818C91581608F088C0A52CB12CAF81A9
:10037000B8858D919C91F801A081B181AA0DBB1D1A
:10038000FC012081318141E06C918F819885F901D8
:100390000995AF81B8858D919C91F801A081B181BB
:1003A000AA0DBB1DFC012281338140E06C918F813D
:1003B0009885F9010995D701C601052C04C0880F5D
:1003C000991FAA1FBB1F0A94D2F79C011C012094FD
:1003D0003094412CD4018C91EF81F885408151817A
:1003E000481648F5642C712CEB81FC81A081B18109
:1003F000A60DB71DFA01448155816C918F819885B6
:100400002D833E83FA010995660C771C2D813E8170
:10041000EF81F885E60DF71D892B29F480859185FC
:10042000822B932B04C08085918582219321918713
:1004300080874394CFCFF801A081B181AA0DBB1D65
:10044000FA012281338141E06C918F819885F90115
:100450000995AF81B8858D919C91F801A081B181FA
:10046000AA0DBB1DFC012081318140E06C918F8180
:100470009885F9010995539472CF28960FB6F89490
:10048000DEBF0FBECDBFDF91CF911F910F91FF90C7
:10049000EF90DF90CF90BF90AF909F908F907F9024
:1004A0006F905F904F903F902F900895FC0180E0F7
:1004B00090E0258D368D2617370739F00196369650
:1004C0008A309105B1F78FEF9FEF0895DC0126E0A8
:1004D000629FA00DB11D112490965C934E935F977F
:1004E00021E091962C939197FC01E459FF4F2081D4
:1004F00031960190F081E02D222331F0309749F0C0
:10050000611107C0DC0102C0309719F05C968C9134
:1005100009940895CF92DF92FF920F931F93CF9388
:10052000DF931F92CDB7DEB76C01F62EFC0186E09B
:10053000689FE00DF11D112411A2878D90A18130DB
:100540009105F1F01CF4892B51F046C082309105E1
:1005500099F1039709F040C040E050E031C04423D6
:10056000D9F141E050E0C6010E9466020E944C04AD
:10057000F601E85AFF4F60837183828393832CC016
:1005800049830E944C04F601E85AFF4F0081118113
:1005900022813381601B710B820B930B7296008159
:1005A000118120E030E04981061717072807390735
:1005B00018F442E050E004C041110EC043E050E0A6
:1005C0006F2DC6010F90DF91CF911F910F91FF907A
:1005D000DF90CF900C9466020F90DF91CF911F9126
:1005E0000F91FF90DF90CF9008952F923F924F92FE
:1005F0005F926F927F928F929F92AF92BF92CF92B3
:10060000DF92EF92FF920F931F93CF93DF931F928E
:10061000CDB7DEB71C01FC014AE08FEF9FEF278DBD
:1006200030A1232B21F4148E968F858F11A2415077
:1006300036964111F4CF712C610126E6C20ED11C11
:10064000510187E6A80EB11C4101A0E68A0E911C5B
:1006500046E0442ED6018C91781608F055C0612CE6
:100660008101070D111D070D111D085F1F4FF501B9
:10067000E0806E1408F046C0F80140815181062CDC
:1006800002C0569547950A94E2F741707E9C70012E
:100690001124E60CF11CD401ED91FC91EE0DFF1D2F
:1006A0005080B701C10149830E945602498197FDDC
:1006B00002C0682F1BC0019619F5442309F180E0A0
:1006C00090E060E070E0F101E80FF91F248D211146
:1006D00011C0469EF001479EF00D1124E20DF31D5E
:1006E000548EF68EE58E10A2178E41E0C1010E9455
:1006F0008A0206C06F5F7F4F06966A30710519F750
:100700006394B5CF7394A6CF20E030E080E0F10190
:10071000E20FF31F91A1911181E02A5F3F4F2C332B
:100720003105A9F70F90DF91CF911F910F91FF90A5
:10073000EF90DF90CF90BF90AF909F908F907F9081
:100740006F905F904F903F902F900895CF92DF92DF
:10075000EF92FF920F931F93CF93DF938C010E9430
:100760004C04E801C45ADF4FC880D980EA80FB807E
:100770006C197D098E099F09F801E859FF4FC08067
:10078000D180E12CF12CC616D706E806F90670F4E4
:10079000C8010E945D01C8010E94F502182F0E9445
:1007A0004C04688379838A839B8301C010E0812F86
:1007B000DF91CF911F910F91FF90EF90DF90CF903D
:1007C00008950F931F93CF93DF93EC018C0104598D
:1007D0001F4F81E0F8018083CE010E94A603882389
:1007E00049F089A1882331F08F8D98A1019711F4E8
:1007F0008C8D03C0F801108280E0DF91CF911F91B2
:100800000F9108951F920F920FB60F9211242F93FC
:100810003F938F939F93AF93BF938091900190915B
:100820009101A0919201B091930130918F0123E049
:10083000230F2D3720F40196A11DB11D05C026E818
:10084000230F0296A11DB11D20938F01809390016B
:1008500090939101A0939201B093930180919401A0
:1008600090919501A0919601B09197010196A11DDB
:10087000B11D8093940190939501A0939601B0933C
:100880009701BF91AF919F918F913F912F910F90C1
:100890000FBE0F901F9018952FB7F894609190019C
:1008A0007091910180919201909193012FBF0895D1
:1008B000789484B5826084BD84B5816084BD85B53B
:1008C000826085BD85B5816085BDEEE6F0E0808102
:1008D00081608083E1E8F0E0108280818260808323
:1008E000808181608083E0E8F0E0808181608083A6
:1008F000E1EBF0E0808184608083E0EBF0E08081D8
:1009000081608083EAE7F0E0808184608083808179
:100910008260808380818160808380818068808321
:100920001092C1000895833081F028F4813099F04D
:100930008230A1F008958730A9F08830B9F0843072
:10094000D1F4809180008F7D03C0809180008F77EB
:1009500080938000089584B58F7702C084B58F7D21
:1009600084BD08958091B0008F7703C08091B0005E
:100970008F7D8093B0000895CF93DF9390E0FC01CA
:10098000E655FF4F2491FC01E254FF4F84918823E8
:1009900049F190E0880F991FFC01EA51FF4FA591A2
:1009A000B49184529F4FFC01C591D4919FB76111BE
:1009B00008C0F8948C91209582238C93888182239F
:1009C0000AC0623051F4F8948C91322F3095832311
:1009D0008C938881822B888304C0F8948C91822B1D
:1009E0008C939FBFDF91CF9108950F931F93CF9367
:1009F000DF931F92CDB7DEB7282F30E0F901EA561A
:100A0000FF4F8491F901E655FF4F1491F901E2542B
:100A1000FF4F04910023C9F0882321F069830E94CD
:100A200093046981E02FF0E0EE0FFF1FE452FF4FC7
:100A3000A591B4919FB7F8948C91611103C0109562
:100A4000812301C0812B8C939FBF0F90DF91CF91A9
:100A50001F910F910895CF93DF93282F30E0F90174
:100A6000EA56FF4F8491F901E655FF4FD491F90101
:100A7000E254FF4FC491CC2391F081110E94930462
:100A8000EC2FF0E0EE0FFF1FEE52FF4FA591B49157
:100A90002C912D2381E090E021F480E002C080E0E1
:100AA00090E0DF91CF91089508950E9458040E942C
:100AB00054050E94A300C0E0D0E00E94A800209747
:100AC000E1F30E940000F9CFEE0FFF1F0590F491B3
:080AD000E02D0994F894FFCF1A
:100AD8000506070403020131323334353637383915
:0E0AE8002A302300000000F500F900FD000098
:00000001FF
