:100000000C945D000C9485000C9485000C94850084
:100010000C9485000C9485000C9485000C9485004C
:100020000C9485000C9485000C9485000C9485003C
:100030000C9485000C9485000C9485000C9485002C
:100040000C94B8020C9485000C9485000C948500E7
:100050000C9485000C9485000C9485000C9485000C
:100060000C9485000C94850000000008000201003B
:100070000003040700000000000000000102040863
:100080001020408001020408102001020408102002
:10009000040404040404040402020202020203032E
:1000A0000303030300000000250028002B000000CC
:1000B0000000240027002A002B0111241FBECFEFCF
:1000C000D8E0DEBFCDBF11E0A0E0B1E0E6ECFCE09F
:1000D00002C005900D92A433B107D9F721E0A4E343
:1000E000B1E001C01D92A535B207E1F710E0CAEBFF
:1000F000D0E004C02297FE010E944E06C83BD10703
:10010000C9F70E94A7040C9461060C94000020E03B
:1001100042E060E184E391E00E94F40140E060E0AD
:1001200084E391E00E94DA0165E071E084E391E00C
:100130000E94F40460ED77E080E090E00E942503E7
:1001400084E391E00C94D3014F925F926F927F927F
:10015000AF92BF92CF92DF92EF92FF920F931F93D5
:100160008EE00E949203BC01882777FD8095982F2E
:100170001F921F921F922FEF2F93A12CB12C65017C
:10018000EE24EA9413E0F12E00E010E020E030E0ED
:10019000A9010E94A8052B013C01882777FD8095C5
:1001A000982F1F921F921F9224E62F93E12CF12C7F
:1001B0008701EA9420E030E0A9010E94A8056B01C4
:1001C0007C01B2018BE00E94AF036AE070E080E046
:1001D00090E00E94250340E060E084E391E00E940B
:1001E000DA0161E171E084E391E00E94F4044AE005
:1001F00050E0B20184E391E00E94A00541E060E09C
:1002000084E391E00E94DA016CE171E084E391E023
:100210000E94F4044AE050E0B60184E391E00E94B9
:10022000A0058DB79EB708960FB6F8949EBF0FBE77
:100230008DBF68E271E084E391E01F910F91FF9020
:10024000EF90DF90CF90BF90AF907F906F905F90D6
:100250004F900C94F404CF92EF920F9347E0C42E8A
:1002600056E0E52E05E024E043E062E084E391E01F
:100270000E9492020F91EF90CF900895CF93DF9359
:10028000EC0160E08E810E94700481E090E00E94A9
:100290004D0361E08E810E94700481E090E00E9435
:1002A0004D0360E08E810E94700484E690E0DF914F
:1002B000CF910C944D03EF92FF920F931F93CF9326
:1002C000DF938C01C0E0D0E0E62EF12CB7010C2EBC
:1002D00002C0759567950A94E2F76170F801EC0F1A
:1002E000FD1F87810E9470042196C430D10571F7EB
:1002F000C801DF91CF911F910F91FF90EF900C9467
:100300003E01EF92FF920F931F93CF93DF938C01E7
:10031000C0E0D0E0E62EF12CB7010C2E02C075959E
:1003200067950A94E2F76170F801EC0FFD1F878171
:100330000E9470042196C830D10571F7C801DF9181
:10034000CF911F910F91FF90EF900C943E011F935E
:10035000CF93DF93EC01162F642F8C810E947004E1
:100360008D818F3F19F060E00E9470048F85612FAE
:1003700084FF06C0CE01DF91CF911F910C948101C3
:1003800070E084E0759567958A95E1F7CE010E944B
:100390005B01612FCE01DF91CF911F910C945B0126
:1003A00040E00C94A70161E00E94D00180ED97E04D
:1003B0000C944D03443008F043E0FC0123894217BC
:1003C00010F04FEF420FFC01E40FF11D2489260FBE
:1003D0002068622F0C94D001FC016089262F2460D4
:1003E000208B6C600C94D0010F931F93CF93DF93FD
:1003F000EC01423018F08F8588608F874B8B1C8A08
:1004000080E48D8B6E8B70E0605C7F4F6F8B22235E
:1004100029F0413019F48F8584608F8761E08C81E9
:100420000E9437048D818F3F19F061E00E943704EC
:1004300061E08E810E94370400E010E08F8584FF28
:1004400003C088E090E002C084E090E0081719073C
:1004500054F4FE01E00FF11F61E087810E94370430
:100460000F5F1F4FEBCF80E593EC0E944D0360E0E0
:100470008C810E94700460E08E810E9470048D81E6
:100480008F3F19F060E00E9470046F8564FD1DC00D
:1004900063E0CE010E945B0184E991E10E944D037B
:1004A00063E0CE010E945B0184E991E10E944D036B
:1004B00063E0CE010E945B0186E990E00E944D035B
:1004C00062E0CE010E945B0116C06062CE010E9414
:1004D000D00184E991E10E944D036F856062CE01F5
:1004E0000E94D00186E990E00E944D036F85606212
:1004F000CE010E94D0016F856062CE010E94D001C2
:1005000084E0888BCE010E94EC01CE010E94D301D1
:1005100082E0898B66E0CE01DF91CF911F910F9130
:100520000C94D001CF92EF920F93FC0113821282B0
:1005300080E391E09183808364838FEF858346839A
:1005400027830087E186C286138614861586168661
:10055000178620E041E060E1CF010F91EF90CF904E
:100560000C94F40141E00E94A70181E090E008951D
:100570001F920F920FB60F9211242F933F938F93D8
:100580009F93AF93BF9380914D0190914E01A091A5
:100590004F01B091500130914C0123E0230F2D37D2
:1005A00020F40196A11DB11D05C026E8230F029677
:1005B000A11DB11D20934C0180934D0190934E01DC
:1005C000A0934F01B093500180915101909152013D
:1005D000A0915301B09154010196A11DB11D8093CA
:1005E000510190935201A0935301B0935401BF91D4
:1005F000AF919F918F913F912F910F900FBE0F90D0
:100600001F9018953FB7F894809151019091520135
:10061000A0915301B091540126B5A89B05C02F3F6E
:1006200019F00196A11DB11D3FBF6627782F892FB4
:100630009A2F620F711D811D911D42E0660F771F79
:10064000881F991F4A95D1F70895CF92DF92EF92B4
:10065000FF92CF93DF936B017C010E940203EB01B9
:10066000C114D104E104F10489F00E94EF050E9455
:1006700002036C1B7D0B683E734090F381E0C81A47
:10068000D108E108F108C851DC4FEACFDF91CF91E2
:10069000FF90EF90DF90CF900895019739F0880F89
:1006A000991F880F991F02970197F1F70895789481
:1006B00084B5826084BD84B5816084BD85B5826067
:1006C00085BD85B5816085BDEEE6F0E08081816005
:1006D0008083E1E8F0E01082808182608083808105
:1006E00081608083E0E8F0E0808181608083E1EBDD
:1006F000F0E0808184608083E0EBF0E080818160C5
:100700008083EAE7F0E0808184608083808182607A
:100710008083808181608083808180688083109263
:10072000C10008958E3008F08E508770209104012A
:1007300090E4299F90011124822B80937C0080916A
:100740007A00806480937A0080917A0086FDFCCFE5
:10075000809178002091790090E0922B08951F936A
:10076000CF93DF93182FEB0161E00E9437042097AD
:1007700011F460E004C0CF3FD10539F461E0812F6E
:10078000DF91CF911F910C947004E12FF0E0E859B4
:10079000FF4FE491E330F9F048F4E130B9F0E23092
:1007A000A1F584B5806284BDC8BD34C0E730E9F0EE
:1007B000E83019F1E43049F580918000806280933F
:1007C0008000D0938B00C0938A0024C084B58068D9
:1007D00084BDC7BD1FC08091800080688093800069
:1007E000D0938900C093880015C08091B0008068C4
:1007F0008093B000C093B3000DC08091B0008062C0
:100800008093B000C093B40005C0C038D1050CF08F
:10081000B5CFAFCFDF91CF911F910895833081F095
:1008200028F4813099F08230A1F008958730A9F042
:100830008830B9F08430D1F4809180008F7D03C07E
:10084000809180008F7780938000089584B58F77A2
:1008500002C084B58F7D84BD08958091B0008F77EC
:1008600003C08091B0008F7D8093B0000895CF9336
:10087000DF9390E0FC01E458FF4F2491FC01E05726
:10088000FF4F8491882349F190E0880F991FFC0164
:10089000E255FF4FA591B4918C559F4FFC01C59136
:1008A000D4919FB7611108C0F8948C912095822350
:1008B0008C93888182230AC0623051F4F8948C9121
:1008C000322F309583238C938881822B888304C0B8
:1008D000F8948C91822B8C939FBFDF91CF910895D8
:1008E0000F931F93CF93DF931F92CDB7DEB7282FBF
:1008F00030E0F901E859FF4F8491F901E458FF4FC6
:100900001491F901E057FF4F04910023C9F08823A7
:1009100021F069830E940E046981E02FF0E0EE0F60
:10092000FF1FEC55FF4FA591B4919FB7F8948C91A0
:10093000611103C01095812301C0812B8C939FBF4F
:100940000F90DF91CF911F910F91089508950E940C
:1009500057030E94A6040E948700C0E0D0E00E94D6
:10096000A4002097E1F30E940000F9CFCF92DF921C
:10097000EF92FF920F931F93CF93DF936C017A0155
:10098000EB01E60EF71E00E010E0CE15DF0561F08A
:100990006991D601ED91FC910190F081E02DC601A5
:1009A0000995080F191FF1CFC801DF91CF911F9151
:1009B0000F91FF90EF90DF90CF9008956115710532
:1009C00081F0DB010D900020E9F7AD0141505109A4
:1009D000461B570BDC01ED91FC910280F381E02D69
:1009E000099480E090E008950C94DE04DC01ED9120
:1009F000FC910190F081E02D09948F929F92AF922B
:100A0000BF92CF92DF92EF92FF920F931F93CF93FB
:100A1000DF93CDB7DEB7A1970FB6F894DEBF0FBE58
:100A2000CDBF7C01C42EE52FCB01D22E19A221E02F
:100A30002D1510F02AE0D22E8E010F5D1F4F8D2C48
:100A4000912CA12CB12C6C2D7E2FA50194010E941C
:100A500000068C2DD29E80191124015011098A3074
:100A600014F4805D01C0895CF80180832115310593
:100A70004105510521F0C22EE32FCA01E4CFB80190
:100A8000C7010E94DE04A1960FB6F894DEBF0FBE28
:100A9000CDBFDF91CF911F910F91FF90EF90DF902D
:100AA000CF90BF90AF909F908F900895CF92DF929C
:100AB000EF92FF920F931F93CF93DF93EC016A01A4
:100AC0007B012115310579F4E881F9810190F081EC
:100AD000E02D642FDF91CF911F910F91FF90EF9048
:100AE000DF90CF9009942A303105E9F477FF1AC0DE
:100AF0006DE20E94F6048C0144275527BA014C1977
:100B00005D096E097F092AE0CE010E94FD04800F75
:100B1000911FDF91CF911F910F91FF90EF90DF9088
:100B2000CF9008952AE0B701A601CE01DF91CF91C1
:100B30001F910F91FF90EF90DF90CF900C94FD04E8
:100B40009A01AB01662757FD6095762F0C945605E8
:100B50004F925F926F927F92AF92BF92CF92DF924D
:100B6000EF92FF920F931F93CF93DF93CDB7DEB732
:100B700029013A01621B730B840B950B29893A8971
:100B80004B895C892A193B094C095D09298B3A8BF1
:100B90004B8B5C8B9B01AC0169897A898B899C8921
:100BA0000E94F005E418F50806091709A801970145
:100BB0000E9422062A0D3B1D4C1D5D1DCA01B90174
:100BC000DF91CF911F910F91FF90EF90DF90CF9029
:100BD000BF90AF907F906F905F904F900895089571
:100BE000DB018F939F930E944106BF91AF91A29F1B
:100BF000800D911DA39F900DB29F900D112408951B
:100C0000A1E21A2EAA1BBB1BFD010DC0AA1FBB1F10
:100C1000EE1FFF1FA217B307E407F50720F0A21B82
:100C2000B30BE40BF50B661F771F881F991F1A94EF
:100C300069F760957095809590959B01AC01BD0119
:100C4000CF010895052E97FB1EF400940E943906EB
:100C500057FD07D00E94000607FC03D04EF40C9409
:100C6000390650954095309521953F4F4F4F5F4F36
:100C7000089590958095709561957F4F8F4F9F4F08
:100C800008950E945206A59F900DB49F900DA49FB9
:100C9000800D911D11240895EE0FFF1F0590F49112
:100CA000E02D0994A29FB001B39FC001A39F700DD6
:100CB000811D1124911DB29F700D811D1124911D64
:060CC0000895F894FFCF37
:100CC600010000000141726475696E6F2050574D36
:100CD600004E696C61692050574D20004475747947
:100CE600204379636C652000252020000000000069
:040CF600B202B6048C
:00000001FF
