:100000000C9459000C9481000C9481000C94810094
:100010000C9481000C9481000C9481000C9481005C
:100020000C9481000C9481000C9481000C9481004C
:100030000C9481000C9481000C9481000C9481003C
:100040000C945C030C9481000C94ED050C941F0639
:100050000C9481000C9481000C9481000C9481001C
:100060000C942F020C948100000000080002010093
:100070000003040700000000000000000102040863
:100080001020408001020408102001020408102002
:10009000040404040404040402020202020203032E
:1000A0000303030300000000250028002B00D601F5
:1000B0004F0611241FBECFEFD8E0DEBFCDBF11E049
:1000C000A0E0B1E0E6E8F5E102C005900D92A832AB
:1000D000B107D9F722E0A8E2B1E001C01D92A5392D
:1000E000B207E1F710E0C2EBD0E004C02297FE01B6
:1000F0000E943608CE3AD107C9F70E9493060C94A5
:10010000C10A0C940000CF93DF93CDB7DEB72E97D2
:100110000FB6F894DEBF0FBECDBF8EE00E942C0458
:1001200024EF31E0AC01429FC001439F900D529FEC
:10013000900D11246FEF73E00E94EA074AE0CE01B0
:1001400009960E94930720E030E043E050E0BE01B2
:100150006F5F7F4FCE0109960E94BF07BE016F5FA0
:100160007F4F84EF91E00E94FB06E0912801F0911F
:1001700029010280F381E02D43E050E0BE016F5F72
:100180007F4F88E291E00995CE0109960E940D0704
:100190002E960FB6F894DEBF0FBECDBFDF91CF9184
:1001A000089560E070E088E291E00E94CF0126E0CF
:1001B00040E855E260E070E084EF91E00C948B053C
:1001C00064E670E080E090E00E94C90363E870E0BC
:1001D00088E291E00C94D10180915B0190E0209144
:1001E0005C01821B9109089520915C0180915B0163
:1001F000281750F4E22FF0E0E35AFE4F808190E0A0
:100200002F5F20935C0108958FEF9FEF0895E09199
:100210005C0180915B01E81730F4F0E0E35AFE4F97
:10022000808190E008958FEF9FEF08950895E09109
:100230003401F09135013097E1F030915C0120916B
:100240005B013217B0F040E0242F30E0261737076B
:1002500054F4DC01A20FB31F5C91D901A35ABE4F25
:100260005C934F5FF1CF10925C0160935B01CB0117
:1002700009940895E0913601F0913701309729F003
:1002800010923A011092390109940895CF92DF92A9
:10029000EF92FF920F931F93CF93DF937C01CB01DB
:1002A0008A0120913801222389F0EB016B01C40EF1
:1002B000D51ECC15DD0569F06991D701ED91FC9152
:1002C0000190F081E02DC7010995F3CF642F0E94C2
:1002D000FC01C801DF91CF911F910F91FF90EF902A
:1002E000DF90CF900895CF93DF931F92CDB7DEB705
:1002F0006983209138012223D1F0209139012032E5
:1003000040F021E030E0FC013383228380E090E084
:1003100015C080913A01E82FF0E0E55CFE4F99812D
:1003200090838F5F80933A018093390105C061E02B
:10033000CE0101960E94FC0181E090E00F90DF91D8
:10034000CF910895FC011382128248EE53E060E0E1
:1003500070E044835583668377838BE091E09183DB
:100360008083089510925C0110925B0110923A0113
:10037000109239010C94DA01CF93DF93EC01862FB0
:100380000E94F8018AE391E00E941A0287E191E05D
:100390000E941502CE01DF91CF910C94B2010C9412
:1003A000BC017093370160933601089588E291E0B3
:1003B0000C94A2011092EA0181E08093E80110926E
:1003C000E70161E082E10E94720461E083E10E9442
:1003D0007204E9EBF0E080818E7F808380818D7FE5
:1003E000808388E48093B80085E48093BC000895FE
:1003F000880F8093BA000895613298F42091EA0141
:10040000243089F460939F01FC0181EA91E0DC01D2
:100410002A2F281B261718F421912D93F9CF80E05D
:10042000089581E0089582E008959093E401809317
:10043000E30108959093E6018093E501089585ED29
:100440008093BC008091BC0084FDFCCF1092EA0137
:10045000089585EC8093BC001092EA0108951F92E4
:100460000F920FB60F9211242F933F934F935F93E8
:100470006F937F938F939F93AF93BF93EF93FF936C
:100480008091B900887F803609F49CC068F5883275
:1004900009F45BC090F4803109F454C038F4882327
:1004A00009F4F5C0883009F44DC0F5C0883109F46D
:1004B0004CC0803209F45DC0EEC0803409F468C0DD
:1004C00048F4803309F455C0883309F0E4C08093C0
:1004D0007D01A8C0803509F44FC0883509F45DC09E
:1004E000883409F0D8C0D5C0883909F4C6C0A8F44A
:1004F000883709F467C038F4883609F463C0803758
:1005000009F460C0C8C0883809F4B7C0803909F45C
:100510005FC0803809F0BFC05BC0803B09F485C074
:1005200038F4803A09F466C0883A09F47EC0B3C052
:10053000803C09F4A6C0883C09F4A3C0883B09F4B8
:1005400089C0A9C08091E90110C09091C201809139
:10055000C101981770F5E091C20181E08E0F809380
:10056000C201F0E0ED53FE4F80818093BB0085EC2B
:1005700085C080937D018DC0E091C20181E08E0F26
:100580008093C2018091BB00F0E0ED53FE4F808369
:100590009091C2018091C1016DC0E091C20181E0E2
:1005A0008E0F8093C2018091BB00F0E0ED53FE4FAF
:1005B00080838091E80181116CC081E08093E70124
:1005C00084EA60C083E08093EA0110927E01CFCF7D
:1005D00080917E01803208F050C0E0917E0181E080
:1005E0008E0F80937E018091BB00F0E0E158FE4FBA
:1005F0008083BDCF80917E01803230F4E0917E0116
:10060000F0E0E158FE4F10820E941F0260917E01CF
:1006100070E0E091E301F091E4018FE791E009954A
:1006200010927E010E94290236C084E08093EA0184
:100630001092A00110929F01E091E501F091E60176
:10064000099580919F01811105C081E080939F01F0
:100650001092A101E091A00181E08E0F8093A00192
:10066000F0E0EF55FE4F80818093BB009091A00198
:1006700080919F01981708F47ACF85E88093BC0099
:100680000AC085EC8093BC001092EA0104C010926D
:100690007D010E941F02FF91EF91BF91AF919F9149
:1006A0008F917F916F915F914F913F912F910F901B
:1006B0000FBE0F901F9018951F920F920FB60F92BA
:1006C00011242F933F938F939F93AF93BF93809168
:1006D000EC019091ED01A091EE01B091EF0130910C
:1006E000EB0123E0230F2D3720F40196A11DB11D4E
:1006F00005C026E8230F0296A11DB11D2093EB0132
:100700008093EC019093ED01A093EE01B093EF0183
:100710008091F0019091F101A091F201B091F3016B
:100720000196A11DB11D8093F0019093F101A0935A
:10073000F201B093F301BF91AF919F918F913F91DF
:100740002F910F900FBE0F901F9018953FB7F89400
:100750008091F0019091F101A091F201B091F3012B
:1007600026B5A89B05C02F3F19F00196A11DB11D0C
:100770003FBF6627782F892F9A2F620F711D811D29
:10078000911D42E0660F771F881F991F4A95D1F788
:100790000895CF92DF92EF92FF92CF93DF936B0198
:1007A0007C010E94A603EB01C114D104E104F10411
:1007B00089F00E94E9070E94A6036C1B7D0B683E2E
:1007C000734090F381E0C81AD108E108F108C851DC
:1007D000DC4FEACFDF91CF91FF90EF90DF90CF9089
:1007E0000895789484B5826084BD84B5816084BDA9
:1007F00085B5826085BD85B5816085BDEEE6F0E09A
:10080000808181608083E1E8F0E0108280818260F5
:100810008083808181608083E0E8F0E08081816076
:100820008083E1EBF0E0808184608083E0EBF0E0A6
:10083000808181608083EAE7F0E08081846080834A
:1008400080818260808380818160808380818068F4
:1008500080831092C10008958E3008F08E5087700A
:100860002091060190E4299F90011124822B80930E
:100870007C0080917A00806480937A0080917A0075
:1008800086FDFCCF809178002091790090E0922B3A
:100890000895833081F028F4813099F08230A1F0FE
:1008A00008958730A9F08830B9F08430D1F4809170
:1008B00080008F7D03C0809180008F7780938000BF
:1008C000089584B58F7702C084B58F7D84BD089567
:1008D0008091B0008F7703C08091B0008F7D8093AE
:1008E000B00008950F931F93CF93DF931F92CDB75E
:1008F000DEB7282F30E0F901E859FF4F8491F90164
:10090000E458FF4F1491F901E057FF4F0491002381
:10091000C9F0882321F069830E9449046981E02F8E
:10092000F0E0EE0FFF1FEC55FF4FA591B4919FB77C
:10093000F8948C91611103C01095812301C0812B23
:100940008C939FBF0F90DF91CF911F910F910895CE
:10095000FC01818D228D90E0805C9F4F821B91096C
:100960008F7399270895FC01918D828D981731F02E
:10097000828DE80FF11D858D90E008958FEF9FEF38
:100980000895FC01918D828D981761F0828DDF01B1
:10099000A80FB11D5D968C91928D9F5F9F73928F72
:1009A00090E008958FEF9FEF089585E496E0892BFE
:1009B00049F080E090E0892B29F00E9445068111E2
:1009C0000C9400000895FC01848DDF01A80FB11D77
:1009D000A35ABF4F2C91848D90E001968F73992775
:1009E000848FA689B7892C93A089B1898C91806462
:1009F0008C93938D848D981306C00288F389E02D23
:100A000080818F7D80830895CF93DF93EC01888D63
:100A10008823C9F0EA89FB89808185FD05C0A88902
:100A2000B9898C9186FD0FC00FB607FCF5CF808188
:100A300085FFF2CFA889B9898C9185FFEDCFCE01D2
:100A40000E94E304E7CFDF91CF910895CF92DF9228
:100A5000FF920F931F93CF93DF931F92CDB7DEB713
:100A60006C01DC015B969C915B975C968C915C972A
:100A7000981307C05096ED91FC915197808185FDA8
:100A800032C0F601038D10E00F5F1F4F0F73112767
:100A9000F02EF601848DF81211C00FB607FCF9CFC5
:100AA000D6015096ED91FC915197808185FFF1CF51
:100AB000C60169830E94E3046981EBCF838DE80F4F
:100AC000F11DE35AFF4F6083D6015B960C935B9751
:100AD0005296ED91FC91539780818062808381E0F2
:100AE00058968C930DC0D6015696ED91FC91579770
:100AF00060835096ED91FC91519780818064808352
:100B000081E090E00F90DF91CF911F910F91FF90C6
:100B1000DF90CF900895BF92CF92DF92EF92FF9235
:100B2000CF93DF93EC016A017B01B22EE889F9894A
:100B300082E08083411581EE580761057105A1F0BF
:100B400060E079E08DE390E0A70196010E94FE0746
:100B500021503109410951095695479537952795F7
:100B6000211580E1380798F0E889F989108260E85A
:100B700074E88EE190E0A70196010E94FE072150E3
:100B80003109410951095695479537952795EC85C7
:100B9000FD853083EE85FF852083188EEC89FD89E5
:100BA000B082EA89FB89808180618083EA89FB8940
:100BB000808188608083EA89FB8980818068808366
:100BC000EA89FB8980818F7D8083DF91CF91FF90BF
:100BD000EF90DF90CF90BF9008951F920F920FB6C5
:100BE0000F9211242F938F939F93EF93FF93E09194
:100BF0000402F09105028081E0910A02F0910B025B
:100C000082FD12C0908180910D028F5F8F732091C1
:100C10000E02821751F0E0910D02F0E0EC50FE4F11
:100C2000958F80930D0201C08081FF91EF919F917C
:100C30008F912F910F900FBE0F901F9018951F92BC
:100C40000F920FB60F9211242F933F934F935F9300
:100C50006F937F938F939F93AF93BF93EF93FF9384
:100C600084EF91E00E94E304FF91EF91BF91AF9177
:100C70009F918F917F916F915F914F913F912F91B4
:100C80000F900FBE0F901F90189584EF91E00E9477
:100C9000A80421E0892B09F420E0822F0895109206
:100CA000F7011092F60188EE93E0A0E0B0E08093A7
:100CB000F8019093F901A093FA01B093FB018BE145
:100CC00091E09093F5018093F40185EC90E090938E
:100CD00001028093000284EC90E0909303028093E1
:100CE000020280EC90E0909305028093040281EC74
:100CF00090E0909307028093060282EC90E090933C
:100D000009028093080286EC90E090930B02809396
:100D10000A0210920D0210920E0210920F0210920F
:100D20001002089508950E94F1030E9492060E9405
:100D3000D100C5EDD4E00E94E0002097E1F30E94CD
:100D4000D504F9CFCF92DF92EF92FF920F931F93CA
:100D5000CF93DF936C017A01EB01E60EF71E00E002
:100D600010E0CE15DF0561F06991D601ED91FC919F
:100D70000190F081E02DC6010995080F191FF1CFF0
:100D8000C801DF91CF911F910F91FF90EF90DF90FD
:100D9000CF9008956115710581F0DB010D90002061
:100DA000E9F7AD0141505109461B570BDC01ED91AC
:100DB000FC910280F381E02D099480E090E0089599
:100DC000DC01ED91FC910190F081E02D09940F93ED
:100DD0001F93CF93DF93EC016DE00E94E0068C013E
:100DE0006AE0CE010E94E006800F911FDF91CF9153
:100DF0001F910F9108950F931F93CF93DF93EC01F1
:100E00000E94CA068C01CE010E94E706800F911F46
:100E1000DF91CF911F910F910895FC018081918105
:100E20000C94D208CF93DF93EC01888199810097CD
:100E300011F00E94D208198218821D821C821B8226
:100E40001A82DF91CF9108950F931F93CF93DF9371
:100E5000EC018B016F5F7F4F888199810E9461094E
:100E6000009731F0998388831B830A8381E001C056
:100E700080E0DF91CF911F910F910895CF93DF9381
:100E8000EC0188819981892B29F08A819B818617C1
:100E9000970760F4CE010E942407882341F08C81DB
:100EA0009D81892B19F4E881F981108281E0DF911D
:100EB000CF910895EF92FF920F931F93CF93DF93FB
:100EC000EC017B018A01BA010E943E07811104C036
:100ED000CE010E94120707C01D830C83B7018881D1
:100EE00099810E94340ACE01DF91CF911F910F9119
:100EF000FF90EF900895CF93DF93EC01611571059A
:100F000061F0FB0101900020E9F7AF014150510968
:100F1000461B570B0E945A0702C00E941207CE01BF
:100F2000DF91CF9108950F931F93CF93DF93CDB7A8
:100F3000DEB762970FB6F894DEBF0FBECDBF8C014F
:100F4000CB01F80111821082138212821582148261
:100F500050E0BE016F5F7F4F0E944A0ABE016F5F83
:100F60007F4FC8010E947B0762960FB6F894DEBFE0
:100F70000FBECDBFDF91CF911F910F9108950F93B9
:100F80001F93CF93DF93EB0141155105E9F02097B3
:100F9000D9F0FC016481758126173707A0F4621B24
:100FA000730B8A01015011096017710708F48B0156
:100FB000FC0160817181620F731FA801CE010E9444
:100FC0003B0AC00FD11F1882DF91CF911F910F9163
:100FD0000895089597FB072E16F4009407D077FD27
:100FE00009D00E94200807FC05D03EF49095819519
:100FF0009F4F0895709561957F4F0895A1E21A2E35
:10100000AA1BBB1BFD010DC0AA1FBB1FEE1FFF1FAC
:10101000A217B307E407F50720F0A21BB30BE40BFC
:10102000F50B661F771F881F991F1A9469F7609543
:101030007095809590959B01AC01BD01CF010895FD
:10104000AA1BBB1B51E107C0AA1FBB1FA617B707EE
:1010500010F0A61BB70B881F991F5A95A9F780950A
:101060009095BC01CD010895EE0FFF1F0590F491FE
:10107000E02D0994CF93DF938230910510F482E044
:1010800090E0E0919302F091940220E030E0A0E043
:10109000B0E0309739F14081518148175907B8F0D5
:1010A0004817590771F482819381109729F013969C
:1010B0009C938E9312972CC09093940280939302EA
:1010C00027C02115310531F04217530718F0A90147
:1010D000DB0101C0EF019A01BD01DF010280F38154
:1010E000E02DD7CF21153105F9F0281B390B24301D
:1010F000310580F48A819B816115710521F0FB0126
:101100009383828304C09093940280939302FE01A0
:10111000329644C0FE01E20FF31F81939193225057
:101120003109398328833AC020919102309192028B
:10113000232B41F42091020130910301309392025C
:101140002093910220910001309101012115310578
:1011500041F42DB73EB74091040150910501241B85
:10116000350BE0919102F0919202E217F307A0F49F
:101170002E1B3F0B2817390778F0AC014E5F5F4FED
:101180002417350748F04E0F5F1F5093920240938B
:1011900091028193919302C0E0E0F0E0CF01DF91F2
:1011A000CF910895CF93DF93009709F487C0FC0196
:1011B000329713821282C0919302D09194022097A9
:1011C00081F420813181280F391F80919102909103
:1011D00092028217930779F5F0939202E0939102BD
:1011E0006DC0DE0120E030E0AE17BF0750F412966C
:1011F0004D915C9113979D014115510509F1DA015B
:10120000F3CFB383A28340815181840F951F8A1746
:101210009B0771F48D919C911197840F951F0296F5
:101220009183808312968D919C91139793838283EF
:101230002115310529F4F0939402E09393023EC006
:10124000D9011396FC93EE9312974D915D91A40FE3
:10125000B51FEA17FB0779F480819181840F951FF0
:101260000296D90111969C938E9382819381139655
:101270009C938E931297E0E0F0E08A819B81009727
:1012800019F0FE01EC01F9CFCE01029628813981D7
:10129000820F931F209191023091920228173907F3
:1012A00069F4309729F4109294021092930202C0CC
:1012B00013821282D0939202C0939102DF91CF9158
:1012C0000895A0E0B0E0E7E6F9E00C948E0AEC01A6
:1012D000CB01209719F40E943A08B8C0FE01E60F2E
:1012E000F71F9E0122503109E217F30708F4ACC042
:1012F000D9010D911C91119706171707B8F0053009
:10130000110508F49FC0A80144505109461757071A
:1013100008F498C002501109061B170B0193119392
:101320006D937C93CF010E94D2088CC05B01A01A00
:10133000B10A4E01800E911EA0919302B0919402C9
:10134000612C712C60E070E0109709F449C0A81579
:10135000B905C9F5ED90FC901197670142E0C40E04
:10136000D11CCA14DB0478F147018A189B08640178
:1013700042E0C40ED11C1296BC9012971396AC9109
:10138000B5E0CB16D10440F0B282A3839182808273
:10139000D9018D939C9309C00E5F1F4F0E0D1F1D29
:1013A000F90111830083EB2DFA2F6115710531F0DE
:1013B000DB011396FC93EE93129744C0F0939402D2
:1013C000E09393023FC06D917C911197661677066A
:1013D00008F43B01BD0112960D90BC91A02DB4CF35
:1013E000609191027091920268157905E9F468168E
:1013F0007906D0F440910001509101014115510549
:1014000041F44DB75EB76091040170910501461B30
:10141000570BE417F507C0F4F0939202E0939102A2
:10142000F901918380830EC00E943A087C010097E5
:1014300059F0A801BE010E942B0ACE010E94D208D9
:10144000C70104C0CE0102C080E090E0CDB7DEB796
:10145000EEE00C94AA0AFB01DC0102C001900D929F
:1014600041505040D8F70895FB01DC0101900D92E6
:101470000020E1F70895FB01DC014150504048F0A5
:1014800001900D920020C9F701C01D9241505040BB
:10149000E0F708954532510520F4423010F00C94E5
:1014A000550AFB011082CB010895BB274A3031F465
:1014B000992322F4BDE2909581959F4F0C94610A87
:1014C000BB27FB015527AA27880F991FAA1FA4171E
:1014D00010F0A41B83955051B9F7A05DAA3308F012
:1014E000A95DA193009779F7B111B1931192CB0146
:1014F0000C947A0ADC01FC01672F71917723E1F7E4
:10150000329704C07C916D9370836291AE17BF07D0
:10151000C8F308952F923F924F925F926F927F92FD
:101520008F929F92AF92BF92CF92DF92EF92FF92F3
:101530000F931F93CF93DF93CDB7DEB7CA1BDB0B9F
:101540000FB6F894DEBF0FBECDBF09942A88398844
:1015500048885F846E847D848C849B84AA84B9844B
:10156000C884DF80EE80FD800C811B81AA81B98157
:10157000CE0FD11D0FB6F894DEBF0FBECDBFED016B
:061580000895F894FFCF6E
:10158600000095028000010000000073014601EC96
:1015960000F40007011601000000002605A206A8B7
:0815A60004C104B304040500B4
:00000001FF
