:100000000C9462000C948A000C948A000C948A0070
:100010000C948A000C948A000C948A000C948A0038
:100020000C948A000C948A000C948A000C948A0028
:100030000C948A000C948A000C948A000C948A0018
:100040000C947E050C948A000C948A000C948A000F
:100050000C948A000C948A000C948A000C948A00F8
:100060000C948A000C948A00000000080002010031
:100070000003040700000000000000000102040863
:100080001020408001020408102001020408102002
:10009000040404040404040402020202020203032E
:1000A00003030303000000002300260029000000D2
:1000B0000000250028002B0000000000240027007D
:1000C0002A00D10011241FBECFEFD8E0DEBFCDBF84
:1000D00011E0A0E0B1E0EAE0FFE002C005900D927F
:1000E000AE34B107D9F721E0AEE4B1E001C01D9212
:1000F000AE3DB207E1F710E0C4ECD0E004C02297B7
:10010000FE010E947F07C23CD107C9F70E94260763
:100110000C9483070C94000020E042E060E18EE440
:1001200091E00E94BA0440E060E08EE491E00E9419
:10013000A00463E171E08EE491E00E94730760ED3A
:1001400077E080E090E00E94F7058EE491E00C9467
:100150009904CF9340E060E08EE491E00E94A00417
:1001600062E271E08EE491E00E94730786E691E01E
:100170000E94E303C82F882391F041E060E08EE401
:1001800091E00E94A0046C2F8EE491E00E9475071C
:1001900060E371E08EE491E0CF910C947307CF910E
:1001A0000895CF92EF920F9383E0E82E04E020E0D1
:1001B00031E043E051E067E071E086E691E00E94C3
:1001C000020198E0C92E29E0E22E0AE02BE04CE083
:1001D0006DE08EE491E00E9458050F91EF90CF9072
:1001E0000895FC0110821482138215820895862FCF
:1001F000642F0C948D06862F642F0C94C606862FD0
:100200000C94FC064F925F926F927F928F929F9216
:10021000AF92BF92CF92DF92EF920F93CF93DF9383
:10022000EC014B013A01590102960E94F10080E471
:1002300091E0998388836E018CE1C80ED11C260160
:100240008CE3480E511CC6010E94F10086E0C80EE6
:10025000D11CC414D504B9F7FE01EE59FF4F7182C9
:1002600060823296B182A082329600833196E0821B
:1002700037979182808238968AE090E091838083DC
:10028000329684EF91E091838083339611821082BD
:1002900071971082118212821382C459DF4F188223
:1002A000DF91CF910F91EF90DF90CF90BF90AF9003
:1002B0009F908F907F906F905F904F9008952F92B6
:1002C0003F924F925F926F927F928F929F92AF92E6
:1002D000BF92CF92DF92EF92FF920F931F93CF9333
:1002E000DF93CDB7DEB728970FB6F894DEBF0FBE09
:1002F000CDBF98878F83F12C4C0186E6880E911C28
:100300000F8118850E591F4FD4018C91F816A0F457
:10031000AF81B8858D919C91F801A081B181AF0D1D
:10032000B11DFC012081318142E06C918F81988563
:10033000F9010995F394E8CF512CEF81F885E9593B
:10034000FF4FFA83E9830F8118850C591F4FC12C89
:10035000D12C7601C3948F8198858E599F4F9C83B1
:100360008B83A981BA818C91581608F088C0A52C7E
:10037000B12CAF81B8858D919C91F801A081B1819C
:10038000AA0DBB1DFC012081318141E06C918F8160
:100390009885F9010995AF81B8858D919C91F801F7
:1003A000A081B181AA0DBB1DFC012281338140E0F7
:1003B0006C918F819885F9010995D701C601052CAB
:1003C00004C0880F991FAA1FBB1F0A94D2F79C0173
:1003D0001C0120943094412CD4018C91EF81F8853C
:1003E00040815181481648F5642C712CEB81FC81C9
:1003F000A081B181A60DB71DFA01448155816C9190
:100400008F8198852D833E83FA010995660C771CB0
:100410002D813E81EF81F885E60DF71D892B29F4AA
:1004200080859185822B932B04C0808591858221C4
:100430009321918780874394CFCFF801A081B18128
:10044000AA0DBB1DFA012281338141E06C918F819D
:100450009885F9010995AF81B8858D919C91F80136
:10046000A081B181AA0DBB1DFC012081318140E03A
:100470006C918F819885F9010995539472CF2896D4
:100480000FB6F894DEBF0FBECDBFDF91CF911F91A5
:100490000F91FF90EF90DF90CF90BF90AF909F9023
:1004A0008F907F906F905F904F903F902F90089526
:1004B000FC0180E090E0258D368D2617370739F056
:1004C000019636968A309105B1F78FEF9FEF089528
:1004D000DC0126E0629FA00DB11D112490965C9373
:1004E0004E935F9721E091962C939197FC01E459EC
:1004F000FF4F208131960190F081E02D222331F0D1
:10050000309749F0611107C0DC0102C0309719F043
:100510005C968C9109940895CF92DF92FF920F938D
:100520001F93CF93DF931F92CDB7DEB76C01F62EEA
:10053000FC0186E0689FE00DF11D112411A2878D5A
:1005400090A181309105F1F01CF4892B51F046C047
:100550008230910599F1039709F040C040E050E0E6
:1005600031C04423D9F141E050E0C6010E94680245
:100570000E94C805F601E85AFF4F608371838283A9
:1005800093832CC049830E94C805F601E85AFF4FA7
:100590000081118122813381601B710B820B930BCF
:1005A00072960081118120E030E04981061717071B
:1005B0002807390718F442E050E004C041110EC08A
:1005C00043E050E06F2DC6010F90DF91CF911F9156
:1005D0000F91FF90DF90CF900C9468020F90DF9105
:1005E000CF911F910F91FF90DF90CF9008952F92A0
:1005F0003F924F925F926F927F928F929F92AF92B3
:10060000BF92CF92DF92EF92FF920F931F93CF93FF
:10061000DF931F92CDB7DEB71C01FC014AE08FEFDC
:100620009FEF278D30A1232B21F4148E968F858F79
:1006300011A2415036964111F4CF712C610126E68A
:10064000C20ED11C510187E6A80EB11C4101A0E6E3
:100650008A0E911C46E0442ED6018C91781608F043
:1006600055C0612C8101070D111D070D111D085F7B
:100670001F4FF501E0806E1408F046C0F80140817C
:100680005181062C02C0569547950A94E2F74170B5
:100690007E9C70011124E60CF11CD401ED91FC91BB
:1006A000EE0DFF1D5080B701C10149830E94580221
:1006B000498197FD02C0682F1BC0019619F544239C
:1006C00009F180E090E060E070E0F101E80FF91FCF
:1006D000248D211111C0469EF001479EF00D11247A
:1006E000E20DF31D548EF68EE58E10A2178E41E0BA
:1006F000C1010E948C0206C06F5F7F4F06966A3070
:10070000710519F76394B5CF7394A6CF20E030E05C
:1007100080E0F101E20FF31F91A1911181E02A5FC6
:100720003F4F2C333105A9F70F90DF91CF911F91E7
:100730000F91FF90EF90DF90CF90BF90AF909F9080
:100740008F907F906F905F904F903F902F90089583
:10075000CF92DF92EF92FF920F931F93CF93DF938D
:100760008C010E94C805E801C45ADF4FC880D980B7
:10077000EA80FB806C197D098E099F09F801E85910
:10078000FF4FC080D180E12CF12CC616D706E806B9
:10079000F90670F4C8010E945F01C8010E94F702C7
:1007A000182F0E94C805688379838A839B8301C0C0
:1007B00010E0812FDF91CF911F910F91FF90EF906B
:1007C000DF90CF9008950F931F93CF93DF93EC01A9
:1007D0008C0104591F4F81E0F8018083CE010E94F3
:1007E000A803882349F089A1882331F08F8D98A12F
:1007F000019711F48C8D03C0F801108280E0DF9125
:10080000CF911F910F910895CF93DF93EC0160E09A
:100810008E810E94C60681E090E00E941F0661E082
:100820008E810E94C60681E090E00E941F0660E073
:100830008E810E94C60684E690E0DF91CF910C94F1
:100840001F06EF92FF920F931F93CF93DF938C01BC
:10085000C0E0D0E0E62EF12CB7010C2E02C0759559
:1008600067950A94E2F76170F801EC0FFD1F87812C
:100870000E94C6062196C430D10571F7C801DF91E8
:10088000CF911F910F91FF90EF900C940404EF9281
:10089000FF920F931F93CF93DF938C01C0E0D0E0C2
:1008A000E62EF12CB7010C2E02C0759567950A94BF
:1008B000E2F76170F801EC0FFD1F87810E94C60608
:1008C0002196C830D10571F7C801DF91CF911F91F2
:1008D0000F91FF90EF900C9404041F93CF93DF933C
:1008E000EC01162F642F8C810E94C6068D818F3FEC
:1008F00019F060E00E94C6068F85612F84FF06C054
:10090000CE01DF91CF911F910C94470470E084E0F9
:10091000759567958A95E1F7CE010E942104612FB4
:10092000CE01DF91CF911F910C94210440E00C94F3
:100930006D0461E00E94960480ED97E00C941F0620
:10094000443008F043E0FC012389421710F04FEFD8
:10095000420FFC01E40FF11D2489260F2068622F4D
:100960000C949604FC016089262F2460208B6C6017
:100970000C9496040F931F93CF93DF93EC014230B6
:1009800018F08F8588608F874B8B1C8A80E48D8B55
:100990006E8B70E0605C7F4F6F8B222329F04130BB
:1009A00019F48F8584608F8761E08C810E948D06A9
:1009B0008D818F3F19F061E00E948D0661E08E818C
:1009C0000E948D0600E010E08F8584FF03C088E060
:1009D00090E002C084E090E00817190754F4FE018B
:1009E000E00FF11F61E087810E948D060F5F1F4FAE
:1009F000EBCF80E593EC0E941F0660E08C810E94A3
:100A0000C60660E08E810E94C6068D818F3F19F078
:100A100060E00E94C6066F8564FD1DC063E0CE01E4
:100A20000E94210484E991E10E941F0663E0CE0147
:100A30000E94210484E991E10E941F0663E0CE0137
:100A40000E94210486E990E00E941F0662E0CE0128
:100A50000E94210416C06062CE010E94960484E9BF
:100A600091E10E941F066F856062CE010E9496048C
:100A700086E990E00E941F066F856062CE010E94A9
:100A800096046F856062CE010E94960484E0888B94
:100A9000CE010E94B204CE010E94990482E0898BAB
:100AA00066E0CE01DF91CF911F910F910C949604D7
:100AB000CF92EF920F93FC01138212828AE491E0AD
:100AC0009183808364838FEF8583468327830087A8
:100AD000E186C2861386148615861686178620E060
:100AE00041E060E1CF010F91EF90CF900C94BA04F8
:100AF00041E00E946D0481E090E008951F920F9202
:100B00000FB60F9211242F933F938F939F93AF9320
:100B1000BF938091D6019091D701A091D801B09157
:100B2000D9013091D50123E0230F2D3720F4019610
:100B3000A11DB11D05C026E8230F0296A11DB11D00
:100B40002093D5018093D6019093D701A093D8012B
:100B5000B093D9018091DA019091DB01A091DC0181
:100B6000B091DD010196A11DB11D8093DA01909332
:100B7000DB01A093DC01B093DD01BF91AF919F91A8
:100B80008F913F912F910F900FBE0F901F9018954E
:100B90002FB7F8946091D6017091D7018091D80158
:100BA0009091D9012FBF08953FB7F8948091DA0151
:100BB0009091DB01A091DC01B091DD0126B5A89BED
:100BC00005C02F3F19F00196A11DB11D3FBF66273B
:100BD000782F892F9A2F620F711D811D911D42E080
:100BE000660F771F881F991F4A95D1F70895CF92F6
:100BF000DF92EF92FF92CF93DF936B017C010E9413
:100C0000D405EB01C114D104E104F10489F00E9480
:100C10007C070E94D4056C1B7D0B683E734090F3EB
:100C200081E0C81AD108E108F108C851DC4FEACFC9
:100C3000DF91CF91FF90EF90DF90CF9008950197D3
:100C400039F0880F991F880F991F02970197F1F7C4
:100C50000895789484B5826084BD84B5816084BD34
:100C600085B5826085BD85B5816085BDEEE6F0E025
:100C7000808181608083E1E8F0E010828081826081
:100C80008083808181608083E0E8F0E08081816002
:100C90008083E1EBF0E0808184608083E0EBF0E032
:100CA000808181608083EAE7F0E0808184608083D6
:100CB0008081826080838081816080838081806880
:100CC00080831092C1000895833081F028F4813030
:100CD00099F08230A1F008958730A9F08830B9F0FA
:100CE0008430D1F4809180008F7D03C0809180009A
:100CF0008F7780938000089584B58F7702C084B584
:100D00008F7D84BD08958091B0008F7703C080915E
:100D1000B0008F7D8093B0000895CF93DF9390E073
:100D2000FC01E458FF4F2491FC01E057FF4F8491F0
:100D3000882349F190E0880F991FFC01E854FF4F88
:100D4000A591B49182559F4FFC01C591D4919FB755
:100D5000611108C0F8948C91209582238C9388812E
:100D600082230AC0623051F4F8948C91322F30956E
:100D700083238C938881822B888304C0F8948C9180
:100D8000822B8C939FBFDF91CF9108950F931F9378
:100D9000CF93DF931F92CDB7DEB7282F30E0F90154
:100DA000E859FF4F8491F901E458FF4F1491F9017C
:100DB000E057FF4F04910023C9F0882321F0698395
:100DC0000E9464066981E02FF0E0EE0FFF1FE255FC
:100DD000FF4FA591B4919FB7F8948C91611103C016
:100DE0001095812301C0812B8C939FBF0F90DF91C1
:100DF000CF911F910F910895CF93DF93282F30E06B
:100E0000F901E859FF4F8491F901E458FF4FD4915B
:100E1000F901E057FF4FC491CC2391F081110E945A
:100E20006406EC2FF0E0EE0FFF1FEC55FF4FA5918D
:100E3000B4912C912D2381E090E021F480E002C058
:100E400080E090E0DF91CF91089508950E942906F7
:100E50000E9425070E948C00C0E0D0E00E94A900FB
:100E60002097E1F30E940000F9CFCF92DF92EF923A
:100E7000FF920F931F93CF93DF936C017A01EB01E5
:100E8000E60EF71E00E010E0CE15DF0561F0699177
:100E9000D601ED91FC910190F081E02DC6010995FC
:100EA000080F191FF1CFC801DF91CF911F910F914A
:100EB000FF90EF90DF90CF9008956115710581F05C
:100EC000DB010D900020E9F7AD0141505109461BAF
:100ED000570BDC01ED91FC910280F381E02D099428
:100EE00080E090E008950C945D07DC01ED91FC91A9
:100EF0000190F081E02D09940895EE0FFF1F0590F9
:0A0F0000F491E02D0994F894FFCF5E
:100F0A0005060704030201313233343536373839DE
:100F1A002A302341726475696E6F204B657970615E
:100F2A006400507265737320616E79206B65790075
:100F3A002069732070726573736564000000000095
:0E0F4A00F700FB00FF000000000078053507EF
:00000001FF
