:100000000C9459000C9481000C9481000C94810094
:100010000C9481000C9481000C9481000C9481005C
:100020000C9481000C9481000C9481000C9481004C
:100030000C9481000C9481000C9481000C9481003C
:100040000C94A6040C9481000C941A070C944C0791
:100050000C9481000C9481000C9481000C9481001C
:100060000C94BA020C948100000000080002010008
:100070000003040700000000000000000102040863
:100080001020408001020408102001020408102002
:10009000040404040404040402020202020203032E
:1000A0000303030300000000250028002B00D801F3
:1000B0007C0711241FBECFEFD8E0DEBFCDBF11E01B
:1000C000A0E0B1E0E0EBF1E102C005900D92A434B4
:1000D000B107D9F722E0A4E4B1E001C01D92AB3A28
:1000E000B207E1F710E0C2EBD0E004C02297FE01B6
:1000F0000E94D208CE3AD107C9F70E94C0070C94DB
:10010000D6080C94000026E040E855E260E070E07C
:100110008EE092E00E94B80685E491E00E949C0186
:100120000E94EE0384E491E00E94F003811103C079
:1001300060E071E002C064E171E08EE092E00C9456
:100140002808CF93DF9300D000D000D0CDB7DEB722
:10015000CE0101960E941A04698170E06053784FC5
:100160004AE050E08EE092E00E94A7086FE28EE045
:1001700092E00E940D084AE050E06A818EE092E031
:100180000E94A0086FE28EE092E00E940D084AE013
:1001900050E06B818EE092E00E94A00860E28EE069
:1001A00092E00E940D084AE050E06C818EE092E0FF
:1001B0000E94A0086AE38EE092E00E940D084AE0E7
:1001C00050E06D818EE092E00E94A0086AE38EE02C
:1001D00092E00E940D084AE050E06E818EE092E0CD
:1001E0000E94A0088EE092E00E94140868EE73E07E
:1001F00080E090E00E94130526960FB6F894DEBFCB
:100200000FBECDBFDF91CF9108958091750190E031
:1002100020917601821B91090895209176018091A9
:100220007501281750F4E22FF0E0E958FE4F808165
:1002300090E02F5F2093760108958FEF9FEF089550
:10024000E091760180917501E81730F4F0E0E9580B
:10025000FE4F808190E008958FEF9FEF08950895FD
:10026000CF92DF92EF92FF920F931F93CF93DF9382
:100270007C01CB018A0120915101222389F0EB01FD
:100280006B01C40ED51ECC15DD0569F06991D7014F
:10029000ED91FC910190F081E02DC7010995F3CF1C
:1002A000642F0E949102C801DF91CF911F910F919D
:1002B000FF90EF90DF90CF900895CF93DF931F9240
:1002C000CDB7DEB76983209151012223D1F020916F
:1002D0005201203240F021E030E0FC0133832283E0
:1002E00080E090E015C080915301E82FF0E0EC5AD7
:1002F000FE4F998190838F5F8093530180935201C9
:1003000005C061E0CE0101960E94910281E090E07B
:100310000F90DF91CF910895FC011382128248EE75
:1003200053E060E070E0448355836683778387E21F
:1003300091E0918380830895109276011092750167
:1003400010925301109252010C94DC01862F41321D
:1003500008F040E267E771E00E94FA01109276012E
:1003600080937501089521E00C94A60181E08093AB
:10037000510160937401109253011092520108953B
:100380000C94B6010F93062F21E04091520164E5D1
:1003900071E0809174010E943E021092530110920C
:1003A0005201109251010F91089561E00C94C20125
:1003B00085E491E00C948C011092040281E080931A
:1003C00002021092010261E082E10E949F0561E059
:1003D00083E10E949F05E9EBF0E080818E7F8083BE
:1003E00080818D7F808388E48093B80085E480934A
:1003F000BC000895413208F03FC090910402911171
:10040000FCCF91E090930402209302022FEF2093FF
:1004100097011092DC01240F2093DB0190930302DB
:1004200090910302880F892B80930302809101022F
:10043000813041F410920102809103028093BB004D
:1004400085EC01C085EE8093BC0080910402813070
:10045000E1F38091DC01841710F44091DC012DED73
:1004600031E0FB01D9018A2F821B841718F48D918A
:100470008193F9CF842F089580E008950F9341323E
:1004800008F046C0909104029111FCCF92E0909345
:100490000402009302029FEF909397011092DC01F7
:1004A0004093DB01FB016DED71E0DB019A2F961BA0
:1004B000941718F491919D93F9CF109203029091A3
:1004C0000302880F892B80930302809101028130FF
:1004D00041F410920102809103028093BB0085ECED
:1004E00001C085EE8093BC00222321F0809104029C
:1004F0008230E1F3809197018F3F61F08091970105
:10050000803251F080919701803341F483E007C03D
:1005100081E005C080E003C082E001C084E00F916B
:100520000895613298F420910402243089F4609394
:10053000B901FC018BEB91E0DC012A2F281B261767
:1005400018F421912D93F9CF80E0089581E008956A
:1005500082E0089585ED8093BC008091BC0084FD0D
:10056000FCCF10920402089585EC8093BC00109299
:10057000040208951F920F920FB60F9211242F9329
:100580003F934F935F936F937F938F939F93AF931B
:10059000BF93EF93FF938091B900887F803609F471
:1005A0009CC068F5883209F45BC090F4803109F48E
:1005B00054C038F4882309F4F5C0883009F44DC0DC
:1005C000F5C0883109F44CC0803209F45DC0EEC03A
:1005D000803409F468C048F4803309F455C0883386
:1005E00009F0E4C080939701A8C0803509F44FC09A
:1005F000883509F45DC0883409F0D8C0D5C0883981
:1006000009F4C6C0A8F4883709F467C038F48836FE
:1006100009F463C0803709F460C0C8C0883809F4A1
:10062000B7C0803909F45FC0803809F0BFC05BC033
:10063000803B09F485C038F4803A09F466C0883AF2
:1006400009F47EC0B3C0803C09F4A6C0883C09F41C
:10065000A3C0883B09F489C0A9C08091030210C0DF
:100660009091DC018091DB01981770F5E091DC013D
:1006700081E08E0F8093DC01F0E0E352FE4F808139
:100680008093BB0085EC85C0809397018DC0E0917D
:10069000DC0181E08E0F8093DC018091BB00F0E0F3
:1006A000E352FE4F80839091DC018091DB016DC0AD
:1006B000E091DC0181E08E0F8093DC018091BB0032
:1006C000F0E0E352FE4F80838091020281116CC002
:1006D00081E08093010284EA60C083E08093040299
:1006E00010929801CFCF80919801803208F050C0CD
:1006F000E091980181E08E0F809398018091BB007A
:10070000F0E0E756FE4F8083BDCF809198018032A4
:1007100030F4E0919801F0E0E756FE4F10820E941D
:10072000AA026091980170E0E091FD01F091FE0154
:1007300089E991E00995109298010E94B40236C0AF
:1007400084E0809304021092BA011092B901E09102
:10075000FF01F091000209958091B901811105C056
:1007600081E08093B9011092BB01E091BA0181E070
:100770008E0F8093BA01F0E0E554FE4F80818093A4
:10078000BB009091BA018091B901981708F47ACF13
:1007900085E88093BC000AC085EC8093BC00109271
:1007A000040204C0109297010E94AA02FF91EF91E7
:1007B000BF91AF919F918F917F916F915F914F9179
:1007C0003F912F910F900FBE0F901F901895DC0155
:1007D000ED91FC910190F081E02D099481E0089564
:1007E000CF93DF9368E670E085E491E00E94C0015A
:1007F00060E070E085E491E00E94E70385E491E029
:100800000E94D50141E050E068E670E085E491E0A7
:100810000E94B30185E491E00E940D0187FB8827C7
:1008200080F9C82F80E0D82F81E0C8278C2FDF9176
:10083000CF910895CF92DF92EF92FF920F931F9383
:10084000CF93DF93EC0168E670E085E491E00E94CD
:10085000C00160E070E085E491E00E94E70385E478
:1008600091E00E94D50147E050E068E670E085E441
:1008700091E00E94B30185E491E00E940D018F7721
:10088000982F92959F701AEF082F919F000D1124B9
:1008900085E491E00E940D019C013327F4E0359539
:1008A0002795FA95E1F7F82E129FF00C112485E4B4
:1008B00091E00E940D019C013327A4E03595279516
:1008C000AA95E1F7E82E129FE00C112485E491E04F
:1008D0000E940D0185E491E00E940D019C013327E7
:1008E000B4E035952795BA95E1F7D82E129FD00C34
:1008F000112485E491E00E940D019C01332794E0CE
:10090000359527959A95E1F7C82E129FC00C1124B2
:1009100085E491E00E940D019C01332744E0359568
:1009200027954A95E1F7129F800D11248883C9828B
:10093000DA82EB82FC820D83CE01DF91CF911F9191
:100940000F91FF90EF90DF90CF9008951F920F923C
:100950000FB60F9211242F933F938F939F93AF93D2
:10096000BF938091060290910702A0910802B09176
:1009700009023091050223E0230F2D3720F4019660
:10098000A11DB11D05C026E8230F0296A11DB11DB2
:10099000209305028093060290930702A093080219
:1009A000B093090280910A0290910B02A0910C026F
:1009B000B0910D020196A11DB11D80930A02909382
:1009C0000B02A0930C02B0930D02BF91AF919F91C7
:1009D0008F913F912F910F900FBE0F901F90189500
:1009E0003FB7F89480910A0290910B02A0910C02FB
:1009F000B0910D0226B5A89B05C02F3F19F00196B6
:100A0000A11DB11D3FBF6627782F892F9A2F620F36
:100A1000711D811D911D42E0660F771F881F991F70
:100A20004A95D1F70895CF92DF92EF92FF92CF933C
:100A3000DF936B017C010E94F004EB01C114D1042F
:100A4000E104F10489F00E94AD080E94F0046C1BDF
:100A50007D0B683E734090F381E0C81AD108E1082D
:100A6000F108C851DC4FEACFDF91CF91FF90EF90B2
:100A7000DF90CF900895789484B5826084BD84B56A
:100A8000816084BD85B5826085BD85B5816085BD89
:100A9000EEE6F0E0808181608083E1E8F0E01082A2
:100AA000808182608083808181608083E0E8F0E0E3
:100AB000808181608083E1EBF0E0808184608083CD
:100AC000E0EBF0E0808181608083EAE7F0E0808104
:100AD0008460808380818260808380818160808364
:100AE0008081806880831092C1000895833081F0F6
:100AF00028F4813099F08230A1F008958730A9F070
:100B00008830B9F08430D1F4809180008F7D03C0AB
:100B1000809180008F7780938000089584B58F77CF
:100B200002C084B58F7D84BD08958091B0008F7719
:100B300003C08091B0008F7D8093B00008950F9323
:100B40001F93CF93DF931F92CDB7DEB7282F30E0EE
:100B5000F901E859FF4F8491F901E458FF4F1491CE
:100B6000F901E057FF4F04910023C9F0882321F0D9
:100B700069830E9476056981E02FF0E0EE0FFF1F88
:100B8000EC55FF4FA591B4919FB7F8948C916111EA
:100B900003C01095812301C0812B8C939FBF0F90C0
:100BA000DF91CF911F910F910895FC01818D228DCE
:100BB00090E0805C9F4F821B91098F739927089565
:100BC000FC01918D828D981731F0828DE80FF11D17
:100BD000858D90E008958FEF9FEF0895FC01918D32
:100BE000828D981761F0828DDF01A80FB11D5D968F
:100BF0008C91928D9F5F9F73928F90E008958FEFFD
:100C00009FEF089582E797E0892B49F080E090E01C
:100C1000892B29F00E94720781110C94000008951D
:100C2000FC01848DDF01A80FB11DA35ABF4F2C9189
:100C3000848D90E001968F739927848FA689B78958
:100C40002C93A089B1898C9180648C93938D848D31
:100C5000981306C00288F389E02D80818F7D808300
:100C60000895CF93DF93EC01888D8823C9F0EA893A
:100C7000FB89808185FD05C0A889B9898C9186FD95
:100C80000FC00FB607FCF5CF808185FFF2CFA88992
:100C9000B9898C9185FFEDCFCE010E941006E7CF78
:100CA000DF91CF910895CF92DF92FF920F931F9320
:100CB000CF93DF931F92CDB7DEB76C01DC015B965B
:100CC0009C915B975C968C915C97981307C05096AB
:100CD000ED91FC915197808185FD32C0F601038D25
:100CE00010E00F5F1F4F0F731127F02EF601848D58
:100CF000F81211C00FB607FCF9CFD6015096ED914E
:100D0000FC915197808185FFF1CFC60169830E94D4
:100D100010066981EBCF838DE80FF11DE35AFF4F79
:100D20006083D6015B960C935B975296ED91FC9194
:100D3000539780818062808381E058968C930DC0A8
:100D4000D6015696ED91FC91579760835096ED91A0
:100D5000FC91519780818064808381E090E00F90C6
:100D6000DF91CF911F910F91FF90DF90CF90089569
:100D7000BF92CF92DF92EF92FF92CF93DF93EC017D
:100D80006A017B01B22EE889F98982E080834115EE
:100D900081EE580761057105A1F060E079E08DE30F
:100DA00090E0A70196010E94AE0821503109410947
:100DB00051095695479537952795211580E13807B4
:100DC00098F0E889F989108260E874E88EE190E093
:100DD000A70196010E94AE0821503109410951092D
:100DE0005695479537952795EC85FD853083EE859B
:100DF000FF852083188EEC89FD89B082EA89FB8902
:100E0000808180618083EA89FB898081886080831A
:100E1000EA89FB89808180688083EA89FB898081F7
:100E20008F7D8083DF91CF91FF90EF90DF90CF9007
:100E3000BF9008951F920F920FB60F9211242F9317
:100E40008F939F93EF93FF93E0911E02F0911F0207
:100E50008081E0912402F091250282FD12C09081F0
:100E6000809127028F5F8F7320912802821751F0A3
:100E7000E0912702F0E0E25FFD4F958F809327021B
:100E800001C08081FF91EF919F918F912F910F90E1
:100E90000FBE0F901F9018951F920F920FB60F92D2
:100EA00011242F933F934F935F936F937F938F936F
:100EB0009F93AF93BF93EF93FF938EE092E00E94D6
:100EC0001006FF91EF91BF91AF919F918F917F910C
:100ED0006F915F914F913F912F910F900FBE0F90A7
:100EE0001F9018958EE092E00E94D50521E0892B95
:100EF00009F420E0822F089510921102109210023E
:100F000088EE93E0A0E0B0E0809312029093130289
:100F1000A0931402B093150287E391E090930F021F
:100F200080930E0285EC90E090931B0280931A024E
:100F300084EC90E090931D0280931C0280EC90E082
:100F400090931F0280931E0281EC90E09093210207
:100F50008093200282EC90E09093230280932202FF
:100F600086EC90E090932502809324021092270251
:100F7000109228021092290210922A0208950895D0
:100F80000E943B050E94BF070E948300C2E0D6E09A
:100F90000E94A1002097E1F30E940206F9CFCF92B0
:100FA000DF92EF92FF920F931F93CF93DF936C0129
:100FB0007A01EB01E60EF71E00E010E0CE15DF052A
:100FC00061F06991D601ED91FC910190F081E02DE5
:100FD000C6010995080F191FF1CFC801DF91CF9104
:100FE0001F910F91FF90EF90DF90CF9008956115C2
:100FF000710581F0DB010D900020E9F7AD01415052
:101000005109461B570BDC01ED91FC910280F381E5
:10101000E02D099480E090E00895DC01ED91FC91D1
:101020000190F081E02D09940F931F93CF93DF93EC
:10103000EC016DE00E940D088C016AE0CE010E9477
:101040000D08800F911FDF91CF911F910F9108958F
:101050000F931F93CF93DF93EC010E94F7078C014E
:10106000CE010E941408800F911FDF91CF911F9134
:101070000F9108958F929F92AF92BF92CF92DF927D
:10108000EF92FF920F931F93CF93DF93CDB7DEB70D
:10109000A1970FB6F894DEBF0FBECDBF7C01C42E62
:1010A000E52FCB01D22E19A221E02D1510F02AE058
:1010B000D22E8E010F5D1F4F8D2C912CA12CB12CA7
:1010C0006C2D7E2FA50194010E94AE088C2DD29E1E
:1010D00080191124015011098A3014F4805D01C077
:1010E000895CF8018083211531054105510521F006
:1010F000C22EE32FCA01E4CFB801C7010E94F7074F
:10110000A1960FB6F894DEBF0FBECDBFDF91CF9191
:101110001F910F91FF90EF90DF90CF90BF90AF9015
:101120009F908F9008952115310541F4DC01ED91D8
:10113000FC910190F081E02D642F09940C943A0801
:101140009A01462F50E060E070E00C9493089A01F9
:10115000AB0160E070E00C9493080895A1E21A2EB0
:10116000AA1BBB1BFD010DC0AA1FBB1FEE1FFF1F4B
:10117000A217B307E407F50720F0A21BB30BE40B9B
:10118000F50B661F771F881F991F1A9469F76095E2
:101190007095809590959B01AC01BD01CF0108959C
:1011A000EE0FFF1F0590F491E02D0994F894FFCF06
:1011B000525443206973206E6F742072756E6E698D
:1011C0006E6721005254432069732072756E6E69F8
:1011D0006E6700000000005D01300105010D012077
:1011E000012F01000000005306CF07D505EE05E0F2
:0411F00005310600BF
:00000001FF
