:100000000C945D000C9485000C9485000C94850084
:100010000C9485000C9485000C9485000C9485004C
:100020000C9485000C9485000C9485000C9485003C
:100030000C9485000C9485000C9485000C9485002C
:100040000C94C1030C9485000C9485000C948500DD
:100050000C9485000C9485000C9485000C9485000C
:100060000C9485000C94850000000008000201003B
:100070000003040700000000000000000102040863
:100080001020408001020408102001020408102002
:10009000040404040404040402020202020203032E
:1000A0000303030300000000250028002B000000CC
:1000B0000000240027002A00B60011241FBECFEF45
:1000C000D8E0DEBFCDBF11E0A0E0B1E0E8E1FBE0A9
:1000D00002C005900D92A233B107D9F721E0A2E347
:1000E000B1E001C01D92A735B207E1F710E0CAEBFD
:1000F000D0E004C02297FE010E948605C83BD107CC
:10010000C9F70E9434050C948A050C94000020E085
:1001100042E060E182E391E00E94A10268E071E0C8
:1001200082E391E00E94810568EE73E080E090E058
:100130000E942E0482E391E00C94650240E060E0AE
:1001400082E391E00E946C0265E171E082E391E05C
:100150000E94810541E060E082E391E00E946C0230
:1001600061E271E082E391E00C9481056AE082E350
:1001700091E00C9455032CB5982F93702C7F922B03
:100180009CBD9DB582FB882780F99E7F982B9DBDE5
:1001900008951F93CF93DF93EC01862F11E0188B06
:1001A000698B61E00E94C4040E948B0384E08A8B07
:1001B0000E94BB001B8A8CB5837F8CBD1C8B8CB5C9
:1001C0008F7D8CBDDF91CF911F910895CF93DF93E9
:1001D000EC018A890E94BB008C89811103C08CB517
:1001E000806202C08CB58F7D8CBD8CB5837F9B896E
:1001F000892B8CBD60E089890E94FD048F858EBDAE
:1002000000000DB407FEFDCF8EB561E08989DF9156
:10021000CF910C94FD04CF92DF92EF92FF92CF9397
:10022000DF93EC018889811117C060E08E810E9404
:10023000FD0481E090E00E94560461E08E810E94FE
:10024000FD0481E090E00E94560460E08E810E94EF
:10025000FD0484E690E03EC0C12CD12C7601C3940D
:10026000D701C6010E8004C0880F991FAA1FBB1FAB
:100270000A94D2F780959F8598239F87CE010E948C
:10028000E60081E090E00E945604D701C6010E808E
:1002900004C0880F991FAA1FBB1F0A94D2F72F858D
:1002A000282B2F87CE010E94E60081E090E00E947B
:1002B00056040E8004C0CC0CDD1CEE1CFF1C0A94FE
:1002C000D2F7C0948F858C218F87CE010E94E600E3
:1002D00088E290E0DF91CF91FF90EF90DF90CF9098
:1002E0000C945604CF92DF92EF92FF920F931F93DC
:1002F000CF93DF937C01C0E0D0E0C62ED12C8701E4
:100300000C0F1D1F61E0F80187810E94C404B60133
:100310000C2E02C0759567950A94E2F76170F8019A
:1003200087810E94FD042196C830D10541F7C7019D
:10033000DF91CF911F910F91FF90EF90DF90CF90C1
:100340000C940B01CF92DF92EF92FF920F931F93C9
:10035000CF93DF937C01DC0150968C91C62FD0E0C7
:1003600081111DC000E010E06701C00ED11E61E0E8
:10037000F60187810E94C404BE01002E02C075955B
:1003800067950A94E2F76170D60117968C910E94E6
:10039000FD040F5F1F4F0430110531F739C084E0B1
:1003A00090E041E050E060E070E09C0124503109B1
:1003B000FE0102C0F595E7952A95E2F79F01D70166
:1003C0001F96EC911F9720FF0EC08A019B01082EFB
:1003D00004C0000F111F221F331F0A94D2F70E2BE7
:1003E0001F960C930EC08A019B01082E04C0000FBB
:1003F000111F221F331F0A94D2F700950E23F70115
:10040000078701968830910581F6C7010E94E600B2
:10041000C701DF91CF911F910F91FF90EF90DF9077
:10042000CF900C940B011F93CF93DF93EC01162F09
:100430008889811114C0642F8C810E94FD048D81F4
:100440008F3F19F060E00E94FD048D89612F84FFC9
:1004500029C0CE01DF91CF911F910C9472019C8134
:100460008F85442369F041E050E060E070E004C013
:10047000440F551F661F771F9A95D2F7482B0DC062
:1004800041E050E060E070E004C0440F551F661F7B
:10049000771F9A95D2F7409548234F87CE010E9447
:1004A000E600612F70E094E0759567959A95E1F705
:1004B000CE010E94A201612FCE01DF91CF911F9149
:1004C0000C94A20140E00C94130261E00E946202CD
:1004D00080ED97E00C945604CF93DF93CDB7DEB751
:1004E00028970FB6F894DEBF0FBECDBF28E0E0E03E
:1004F000F1E0DE01119601900D922A95E1F7FC01E1
:10050000218D241710F44FEF420FFE013196E40FB6
:10051000F11DE40FF11D2081260F2068622F28961F
:100520000FB6F894DEBF0FBECDBFDF91CF910C9414
:100530006202FC016689262F2460268B6C600C9475
:100540006202CF93DF93EC01423018F08D8988600E
:100550008D8B498F1A8E222329F0413019F48D8911
:1005600084608D8B80E593EC0E94560460E08C8162
:100570000E94FD0460E08E810E94FD048D818F3F0A
:1005800019F060E00E94FD046D8964FD1DC063E008
:10059000CE010E94A20184E991E10E94560463E029
:1005A000CE010E94A20184E991E10E94560463E019
:1005B000CE010E94A20186E990E00E94560462E00A
:1005C000CE010E94A20116C06062CE010E946202AA
:1005D00084E991E10E9456046D896062CE010E9417
:1005E000620286E990E00E9456046D896062CE0145
:1005F0000E9462026D896062CE010E94620284E004
:100600008E8BCE010E949902CE010E94650282E08B
:100610008F8B66E0CE01DF91CF910C9462026F92D6
:100620007F928F92AF92CF92EF920F931F93CF93BF
:10063000DF93CDB7DEB73C01162F842F5D854E8545
:100640003F859889F301848325830683E782C086EA
:10065000A1868286538744873587968761E00E940A
:10066000C404F30185818F3F19F061E00E94C40446
:1006700061E0F30186810E94C404112319F0F301A3
:10068000158A03C080E1F301858B20E041E060E141
:10069000C301DF91CF911F910F91EF90CF90AF9059
:1006A0008F907F906F900C94A1028F92AF92CF9217
:1006B000EF920F93CF93DF93EC011B821A828DE2AE
:1006C00091E099838883CE010E94C90087E08F93CF
:1006D00086E08F9385E08F9384E08F93812CA12C0B
:1006E000C12CE12C03E02FEF41E061E0CE010E943C
:1006F0000F030F900F900F900F90DF91CF910F91FC
:10070000EF90CF90AF908F90089541E00E94130238
:1007100081E090E00895CF93CFB7F89480914D0198
:10072000811127C0EAE9F0E08491E6E8F0E09491D5
:10073000E82FF0E0EE0FFF1FE255FF4FA591B491B7
:100740008C91892321F461E08AE00E94FD0461E03C
:100750008AE00E94C4048CB580618CBD8CB5806435
:100760008CBD61E08DE00E94C40461E08BE00E94DA
:10077000C40480914D018F5F80934D01CFBFCF9115
:1007800008951F920F920FB60F9211242F933F934B
:100790008F939F93AF93BF9380914F01909150019E
:1007A000A0915101B091520130914E0123E0230FED
:1007B0002D3720F40196A11DB11D05C026E8230F99
:1007C0000296A11DB11D20934E0180934F0190937D
:1007D0005001A0935101B093520180915301909127
:1007E0005401A0915501B09156010196A11DB11D72
:1007F0008093530190935401A0935501B0935601F7
:10080000BF91AF919F918F913F912F910F900FBE0C
:100810000F901F9018953FB7F894809153019091D5
:100820005401A0915501B091560126B5A89B05C071
:100830002F3F19F00196A11DB11D3FBF6627782FEC
:10084000892F9A2F620F711D811D911D42E0660F45
:10085000771F881F991F4A95D1F70895CF92DF928D
:10086000EF92FF92CF93DF936B017C010E940B0408
:10087000EB01C114D104E104F10489F00E94830565
:100880000E940B046C1B7D0B683E734090F381E06B
:10089000C81AD108E108F108C851DC4FEACFDF914E
:1008A000CF91FF90EF90DF90CF900895019739F0AE
:1008B000880F991F880F991F02970197F1F70895E4
:1008C000789484B5826084BD84B5816084BD85B52B
:1008D000826085BD85B5816085BDEEE6F0E08081F2
:1008E00081608083E1E8F0E0108280818260808313
:1008F000808181608083E0E8F0E080818160808396
:10090000E1EBF0E0808184608083E0EBF0E08081C7
:1009100081608083EAE7F0E0808184608083808169
:100920008260808380818160808380818068808311
:100930001092C1000895833081F028F4813099F03D
:100940008230A1F008958730A9F08830B9F0843062
:10095000D1F4809180008F7D03C0809180008F77DB
:1009600080938000089584B58F7702C084B58F7D11
:1009700084BD08958091B0008F7703C08091B0004E
:100980008F7D8093B0000895CF93DF9390E0FC01BA
:10099000E458FF4F2491FC01E057FF4F84918823D6
:1009A00049F190E0880F991FFC01E255FF4FA59196
:1009B000B4918C559F4FFC01C591D4919FB76111A3
:1009C00008C0F8948C91209582238C93888182238F
:1009D0000AC0623051F4F8948C91322F3095832301
:1009E0008C938881822B888304C0F8948C91822B0D
:1009F0008C939FBFDF91CF9108950F931F93CF9357
:100A0000DF931F92CDB7DEB7282F30E0F901E85908
:100A1000FF4F8491F901E458FF4F1491F901E05719
:100A2000FF4F04910023C9F0882321F069830E94BD
:100A30009B046981E02FF0E0EE0FFF1FEC55FF4FA4
:100A4000A591B4919FB7F8948C91611103C0109552
:100A5000812301C0812B8C939FBF0F90DF91CF9199
:100A60001F910F91089508950E9460040E9433051C
:100A70000E948700C0E0D0E00E949E002097E1F332
:100A80000E940000F9CFCF92DF92EF92FF920F9376
:100A90001F93CF93DF936C017A01EB01E60EF71EF3
:100AA00000E010E0CE15DF0561F06991D601ED910F
:100AB000FC910190F081E02DC6010995080F191FE6
:100AC000F1CFC801DF91CF911F910F91FF90EF906F
:100AD000DF90CF9008956115710581F0DB010D90D5
:100AE0000020E9F7AD0141505109461B570BDC01CD
:100AF000ED91FC910280F381E02D099480E090E07B
:100B000008950C946B050895EE0FFF1F0590F49166
:080B1000E02D0994F894FFCFD9
:100B1800000040001400540048656C6C6F20776F2B
:100B2800726C64210041726475696E6F205350497C
:100B38000037344843353935000000000085034349
:020B48000500A6
:00000001FF
